{
  "_format": "hh3-artifact-1",
  "contractName": "NFT",
  "sourceName": "contracts/NFT.sol",
  "abi": [
    {
      "inputs": [],
      "stateMutability": "nonpayable",
      "type": "constructor"
    },
    {
      "inputs": [
        {
          "internalType": "address",
          "name": "sender",
          "type": "address"
        },
        {
          "internalType": "uint256",
          "name": "tokenId",
          "type": "uint256"
        },
        {
          "internalType": "address",
          "name": "owner",
          "type": "address"
        }
      ],
      "name": "ERC721IncorrectOwner",
      "type": "error"
    },
    {
      "inputs": [
        {
          "internalType": "address",
          "name": "operator",
          "type": "address"
        },
        {
          "internalType": "uint256",
          "name": "tokenId",
          "type": "uint256"
        }
      ],
      "name": "ERC721InsufficientApproval",
      "type": "error"
    },
    {
      "inputs": [
        {
          "internalType": "address",
          "name": "approver",
          "type": "address"
        }
      ],
      "name": "ERC721InvalidApprover",
      "type": "error"
    },
    {
      "inputs": [
        {
          "internalType": "address",
          "name": "operator",
          "type": "address"
        }
      ],
      "name": "ERC721InvalidOperator",
      "type": "error"
    },
    {
      "inputs": [
        {
          "internalType": "address",
          "name": "owner",
          "type": "address"
        }
      ],
      "name": "ERC721InvalidOwner",
      "type": "error"
    },
    {
      "inputs": [
        {
          "internalType": "address",
          "name": "receiver",
          "type": "address"
        }
      ],
      "name": "ERC721InvalidReceiver",
      "type": "error"
    },
    {
      "inputs": [
        {
          "internalType": "address",
          "name": "sender",
          "type": "address"
        }
      ],
      "name": "ERC721InvalidSender",
      "type": "error"
    },
    {
      "inputs": [
        {
          "internalType": "uint256",
          "name": "tokenId",
          "type": "uint256"
        }
      ],
      "name": "ERC721NonexistentToken",
      "type": "error"
    },
    {
      "inputs": [
        {
          "internalType": "address",
          "name": "owner",
          "type": "address"
        }
      ],
      "name": "OwnableInvalidOwner",
      "type": "error"
    },
    {
      "inputs": [
        {
          "internalType": "address",
          "name": "account",
          "type": "address"
        }
      ],
      "name": "OwnableUnauthorizedAccount",
      "type": "error"
    },
    {
      "anonymous": false,
      "inputs": [
        {
          "indexed": true,
          "internalType": "address",
          "name": "owner",
          "type": "address"
        },
        {
          "indexed": true,
          "internalType": "address",
          "name": "approved",
          "type": "address"
        },
        {
          "indexed": true,
          "internalType": "uint256",
          "name": "tokenId",
          "type": "uint256"
        }
      ],
      "name": "Approval",
      "type": "event"
    },
    {
      "anonymous": false,
      "inputs": [
        {
          "indexed": true,
          "internalType": "address",
          "name": "owner",
          "type": "address"
        },
        {
          "indexed": true,
          "internalType": "address",
          "name": "operator",
          "type": "address"
        },
        {
          "indexed": false,
          "internalType": "bool",
          "name": "approved",
          "type": "bool"
        }
      ],
      "name": "ApprovalForAll",
      "type": "event"
    },
    {
      "anonymous": false,
      "inputs": [
        {
          "indexed": false,
          "internalType": "uint256",
          "name": "_fromTokenId",
          "type": "uint256"
        },
        {
          "indexed": false,
          "internalType": "uint256",
          "name": "_toTokenId",
          "type": "uint256"
        }
      ],
      "name": "BatchMetadataUpdate",
      "type": "event"
    },
    {
      "anonymous": false,
      "inputs": [
        {
          "indexed": false,
          "internalType": "uint256",
          "name": "_tokenId",
          "type": "uint256"
        }
      ],
      "name": "MetadataUpdate",
      "type": "event"
    },
    {
      "anonymous": false,
      "inputs": [
        {
          "indexed": true,
          "internalType": "address",
          "name": "to",
          "type": "address"
        },
        {
          "indexed": true,
          "internalType": "uint256",
          "name": "tokenId",
          "type": "uint256"
        },
        {
          "indexed": false,
          "internalType": "string",
          "name": "name",
          "type": "string"
        },
        {
          "indexed": false,
          "internalType": "string",
          "name": "description",
          "type": "string"
        },
        {
          "indexed": false,
          "internalType": "string",
          "name": "tokenURI",
          "type": "string"
        }
      ],
      "name": "NFTMinted",
      "type": "event"
    },
    {
      "anonymous": false,
      "inputs": [
        {
          "indexed": true,
          "internalType": "address",
          "name": "previousOwner",
          "type": "address"
        },
        {
          "indexed": true,
          "internalType": "address",
          "name": "newOwner",
          "type": "address"
        }
      ],
      "name": "OwnershipTransferred",
      "type": "event"
    },
    {
      "anonymous": false,
      "inputs": [
        {
          "indexed": true,
          "internalType": "address",
          "name": "from",
          "type": "address"
        },
        {
          "indexed": true,
          "internalType": "address",
          "name": "to",
          "type": "address"
        },
        {
          "indexed": true,
          "internalType": "uint256",
          "name": "tokenId",
          "type": "uint256"
        }
      ],
      "name": "Transfer",
      "type": "event"
    },
    {
      "inputs": [
        {
          "internalType": "address",
          "name": "to",
          "type": "address"
        },
        {
          "internalType": "uint256",
          "name": "tokenId",
          "type": "uint256"
        }
      ],
      "name": "approve",
      "outputs": [],
      "stateMutability": "nonpayable",
      "type": "function"
    },
    {
      "inputs": [
        {
          "internalType": "address",
          "name": "owner",
          "type": "address"
        }
      ],
      "name": "balanceOf",
      "outputs": [
        {
          "internalType": "uint256",
          "name": "",
          "type": "uint256"
        }
      ],
      "stateMutability": "view",
      "type": "function"
    },
    {
      "inputs": [
        {
          "internalType": "uint256",
          "name": "tokenId",
          "type": "uint256"
        }
      ],
      "name": "getApproved",
      "outputs": [
        {
          "internalType": "address",
          "name": "",
          "type": "address"
        }
      ],
      "stateMutability": "view",
      "type": "function"
    },
    {
      "inputs": [
        {
          "internalType": "address",
          "name": "owner",
          "type": "address"
        },
        {
          "internalType": "address",
          "name": "operator",
          "type": "address"
        }
      ],
      "name": "isApprovedForAll",
      "outputs": [
        {
          "internalType": "bool",
          "name": "",
          "type": "bool"
        }
      ],
      "stateMutability": "view",
      "type": "function"
    },
    {
      "inputs": [],
      "name": "name",
      "outputs": [
        {
          "internalType": "string",
          "name": "",
          "type": "string"
        }
      ],
      "stateMutability": "view",
      "type": "function"
    },
    {
      "inputs": [],
      "name": "owner",
      "outputs": [
        {
          "internalType": "address",
          "name": "",
          "type": "address"
        }
      ],
      "stateMutability": "view",
      "type": "function"
    },
    {
      "inputs": [
        {
          "internalType": "uint256",
          "name": "tokenId",
          "type": "uint256"
        }
      ],
      "name": "ownerOf",
      "outputs": [
        {
          "internalType": "address",
          "name": "",
          "type": "address"
        }
      ],
      "stateMutability": "view",
      "type": "function"
    },
    {
      "inputs": [],
      "name": "renounceOwnership",
      "outputs": [],
      "stateMutability": "nonpayable",
      "type": "function"
    },
    {
      "inputs": [
        {
          "internalType": "string",
          "name": "name",
          "type": "string"
        },
        {
          "internalType": "string",
          "name": "description",
          "type": "string"
        },
        {
          "internalType": "string",
          "name": "_tokenURI",
          "type": "string"
        }
      ],
      "name": "safeMint",
      "outputs": [
        {
          "internalType": "uint256",
          "name": "",
          "type": "uint256"
        }
      ],
      "stateMutability": "nonpayable",
      "type": "function"
    },
    {
      "inputs": [
        {
          "internalType": "address",
          "name": "from",
          "type": "address"
        },
        {
          "internalType": "address",
          "name": "to",
          "type": "address"
        },
        {
          "internalType": "uint256",
          "name": "tokenId",
          "type": "uint256"
        }
      ],
      "name": "safeTransferFrom",
      "outputs": [],
      "stateMutability": "nonpayable",
      "type": "function"
    },
    {
      "inputs": [
        {
          "internalType": "address",
          "name": "from",
          "type": "address"
        },
        {
          "internalType": "address",
          "name": "to",
          "type": "address"
        },
        {
          "internalType": "uint256",
          "name": "tokenId",
          "type": "uint256"
        },
        {
          "internalType": "bytes",
          "name": "data",
          "type": "bytes"
        }
      ],
      "name": "safeTransferFrom",
      "outputs": [],
      "stateMutability": "nonpayable",
      "type": "function"
    },
    {
      "inputs": [
        {
          "internalType": "address",
          "name": "operator",
          "type": "address"
        },
        {
          "internalType": "bool",
          "name": "approved",
          "type": "bool"
        }
      ],
      "name": "setApprovalForAll",
      "outputs": [],
      "stateMutability": "nonpayable",
      "type": "function"
    },
    {
      "inputs": [
        {
          "internalType": "bytes4",
          "name": "interfaceId",
          "type": "bytes4"
        }
      ],
      "name": "supportsInterface",
      "outputs": [
        {
          "internalType": "bool",
          "name": "",
          "type": "bool"
        }
      ],
      "stateMutability": "view",
      "type": "function"
    },
    {
      "inputs": [],
      "name": "symbol",
      "outputs": [
        {
          "internalType": "string",
          "name": "",
          "type": "string"
        }
      ],
      "stateMutability": "view",
      "type": "function"
    },
    {
      "inputs": [
        {
          "internalType": "uint256",
          "name": "tokenId",
          "type": "uint256"
        }
      ],
      "name": "tokenURI",
      "outputs": [
        {
          "internalType": "string",
          "name": "",
          "type": "string"
        }
      ],
      "stateMutability": "view",
      "type": "function"
    },
    {
      "inputs": [
        {
          "internalType": "address",
          "name": "from",
          "type": "address"
        },
        {
          "internalType": "address",
          "name": "to",
          "type": "address"
        },
        {
          "internalType": "uint256",
          "name": "tokenId",
          "type": "uint256"
        }
      ],
      "name": "transferFrom",
      "outputs": [],
      "stateMutability": "nonpayable",
      "type": "function"
    },
    {
      "inputs": [
        {
          "internalType": "address",
          "name": "newOwner",
          "type": "address"
        }
      ],
      "name": "transferOwnership",
      "outputs": [],
      "stateMutability": "nonpayable",
      "type": "function"
    }
  ],
  "bytecode": "0x608060405234801561000f575f5ffd5b50336040518060400160405280600381526020016213919560ea1b815250604051806040016040528060038152602001624d544b60e81b815250815f9081610057919061018c565b506001610064828261018c565b5050506001600160a01b03811661009457604051631e4fbdf760e01b81525f600482015260240160405180910390fd5b61009d816100a3565b50610246565b600780546001600160a01b038381166001600160a01b0319831681179093556040519116919082907f8be0079c531659141344cd1fd0a4f28419497f9722a3daafe3b4186f6b6457e0905f90a35050565b634e487b7160e01b5f52604160045260245ffd5b600181811c9082168061011c57607f821691505b60208210810361013a57634e487b7160e01b5f52602260045260245ffd5b50919050565b601f82111561018757805f5260205f20601f840160051c810160208510156101655750805b601f840160051c820191505b81811015610184575f8155600101610171565b50505b505050565b81516001600160401b038111156101a5576101a56100f4565b6101b9816101b38454610108565b84610140565b6020601f8211600181146101eb575f83156101d45750848201515b5f19600385901b1c1916600184901b178455610184565b5f84815260208120601f198516915b8281101561021a57878501518255602094850194600190920191016101fa565b508482101561023757868401515f19600387901b60f8161c191681555b50505050600190811b01905550565b611566806102535f395ff3fe608060405234801561000f575f5ffd5b5060043610610106575f3560e01c806370a082311161009e578063a22cb4651161006e578063a22cb46514610215578063b88d4fde14610228578063c87b56dd1461023b578063e985e9c51461024e578063f2fde38b14610261575f5ffd5b806370a08231146101e1578063715018a6146101f45780638da5cb5b146101fc57806395d89b411461020d575f5ffd5b80631042f0c6116100d95780631042f0c61461018757806323b872dd146101a857806342842e0e146101bb5780636352211e146101ce575f5ffd5b806301ffc9a71461010a57806306fdde0314610132578063081812fc14610147578063095ea7b314610172575b5f5ffd5b61011d610118366004610f9c565b610274565b60405190151581526020015b60405180910390f35b61013a610284565b6040516101299190610fe5565b61015a610155366004610ff7565b610313565b6040516001600160a01b039091168152602001610129565b610185610180366004611029565b61033a565b005b61019a610195366004611096565b610349565b604051908152602001610129565b6101856101b6366004611135565b61045c565b6101856101c9366004611135565b6104e5565b61015a6101dc366004610ff7565b610504565b61019a6101ef36600461116f565b61050e565b610185610553565b6007546001600160a01b031661015a565b61013a610566565b610185610223366004611188565b610575565b6101856102363660046111d5565b610580565b61013a610249366004610ff7565b610598565b61011d61025c3660046112b2565b6105a3565b61018561026f36600461116f565b6105d0565b5f61027e8261060d565b92915050565b60605f8054610292906112e3565b80601f01602080910402602001604051908101604052809291908181526020018280546102be906112e3565b80156103095780601f106102e057610100808354040283529160200191610309565b820191905f5260205f20905b8154815290600101906020018083116102ec57829003601f168201915b5050505050905090565b5f61031d82610631565b505f828152600460205260409020546001600160a01b031661027e565b610345828233610669565b5050565b5f816103a65760405162461bcd60e51b815260206004820152602160248201527f4e46544d696e743a20746f6b656e5552492063616e6e6f7420626520656d70746044820152607960f81b60648201526084015b60405180910390fd5b600880545f91826103b68361131b565b9190505590506103fb8185858080601f0160208091040260200160405190810160405280939291908181526020018383808284375f9201919091525061067692505050565b61040533826106c5565b80336001600160a01b03167fa1d9f517b2d2899ce4406ce87b7865c7ae5ff67324ad58c46abb3164d86b69718a8a8a8a8a8a60405161044996959493929190611367565b60405180910390a3979650505050505050565b6001600160a01b03821661048557604051633250574960e11b81525f600482015260240161039d565b5f6104918383336106de565b9050836001600160a01b0316816001600160a01b0316146104df576040516364283d7b60e01b81526001600160a01b038086166004830152602482018490528216604482015260640161039d565b50505050565b6104ff83838360405180602001604052805f815250610580565b505050565b5f61027e82610631565b5f6001600160a01b038216610538576040516322718ad960e21b81525f600482015260240161039d565b506001600160a01b03165f9081526003602052604090205490565b61055b6107d0565b6105645f6107fd565b565b606060018054610292906112e3565b61034533838361084e565b61058b84848461045c565b6104df33858585856108ec565b606061027e82610a14565b6001600160a01b039182165f90815260056020908152604080832093909416825291909152205460ff1690565b6105d86107d0565b6001600160a01b03811661060157604051631e4fbdf760e01b81525f600482015260240161039d565b61060a816107fd565b50565b5f6001600160e01b03198216632483248360e11b148061027e575061027e82610b1f565b5f818152600260205260408120546001600160a01b03168061027e57604051637e27328960e01b81526004810184905260240161039d565b6104ff8383836001610b6e565b5f82815260066020526040902061068d82826113f3565b506040518281527ff8e1a15aba9398e019f0b49df1a4fde98ee17ae345cb5f6b5e2c27f5033e8ce79060200160405180910390a15050565b610345828260405180602001604052805f815250610c72565b5f828152600260205260408120546001600160a01b039081169083161561070a5761070a818486610c89565b6001600160a01b03811615610744576107255f855f5f610b6e565b6001600160a01b0381165f90815260036020526040902080545f190190555b6001600160a01b03851615610772576001600160a01b0385165f908152600360205260409020805460010190555b5f8481526002602052604080822080546001600160a01b0319166001600160a01b0389811691821790925591518793918516917fddf252ad1be2c89b69c2b068fc378daa952ba7f163c4a11628f55a4df523b3ef91a4949350505050565b6007546001600160a01b031633146105645760405163118cdaa760e01b815233600482015260240161039d565b600780546001600160a01b038381166001600160a01b0319831681179093556040519116919082907f8be0079c531659141344cd1fd0a4f28419497f9722a3daafe3b4186f6b6457e0905f90a35050565b6001600160a01b03821661088057604051630b61174360e31b81526001600160a01b038316600482015260240161039d565b6001600160a01b038381165f81815260056020908152604080832094871680845294825291829020805460ff191686151590811790915591519182527f17307eab39ab6107e8899845ad3d59bd9653f200f220920489ca2b5937696c31910160405180910390a3505050565b6001600160a01b0383163b15610a0d57604051630a85bd0160e11b81526001600160a01b0384169063150b7a029061092e9088908890879087906004016114ae565b6020604051808303815f875af1925050508015610968575060408051601f3d908101601f19168201909252610965918101906114ea565b60015b6109cf573d808015610995576040519150601f19603f3d011682016040523d82523d5f602084013e61099a565b606091505b5080515f036109c757604051633250574960e11b81526001600160a01b038516600482015260240161039d565b805160208201fd5b6001600160e01b03198116630a85bd0160e11b14610a0b57604051633250574960e11b81526001600160a01b038516600482015260240161039d565b505b5050505050565b6060610a1f82610631565b505f8281526006602052604081208054610a38906112e3565b80601f0160208091040260200160405190810160405280929190818152602001828054610a64906112e3565b8015610aaf5780601f10610a8657610100808354040283529160200191610aaf565b820191905f5260205f20905b815481529060010190602001808311610a9257829003601f168201915b505050505090505f610acb60408051602081019091525f815290565b905080515f03610adc575092915050565b815115610b0e578082604051602001610af692919061151c565b60405160208183030381529060405292505050919050565b610b1784610ced565b949350505050565b5f6001600160e01b031982166380ac58cd60e01b1480610b4f57506001600160e01b03198216635b5e139f60e01b145b8061027e57506301ffc9a760e01b6001600160e01b031983161461027e565b8080610b8257506001600160a01b03821615155b15610c43575f610b9184610631565b90506001600160a01b03831615801590610bbd5750826001600160a01b0316816001600160a01b031614155b8015610bd05750610bce81846105a3565b155b15610bf95760405163a9fbf51f60e01b81526001600160a01b038416600482015260240161039d565b8115610c415783856001600160a01b0316826001600160a01b03167f8c5be1e5ebec7d5bd14f71427d1e84f3dd0314c0f7b2291e5b200ac8c7c3b92560405160405180910390a45b505b50505f90815260046020526040902080546001600160a01b0319166001600160a01b0392909216919091179055565b610c7c8383610d5e565b6104ff335f8585856108ec565b610c94838383610dbf565b6104ff576001600160a01b038316610cc257604051637e27328960e01b81526004810182905260240161039d565b60405163177e802f60e01b81526001600160a01b03831660048201526024810182905260440161039d565b6060610cf882610631565b505f610d0e60408051602081019091525f815290565b90505f815111610d2c5760405180602001604052805f815250610d57565b80610d3684610e20565b604051602001610d4792919061151c565b6040516020818303038152906040525b9392505050565b6001600160a01b038216610d8757604051633250574960e11b81525f600482015260240161039d565b5f610d9383835f6106de565b90506001600160a01b038116156104ff576040516339e3563760e11b81525f600482015260240161039d565b5f6001600160a01b03831615801590610b175750826001600160a01b0316846001600160a01b03161480610df85750610df884846105a3565b80610b175750505f908152600460205260409020546001600160a01b03908116911614919050565b60605f610e2c83610eb0565b60010190505f8167ffffffffffffffff811115610e4b57610e4b6111c1565b6040519080825280601f01601f191660200182016040528015610e75576020820181803683370190505b5090508181016020015b5f19016f181899199a1a9b1b9c1cb0b131b232b360811b600a86061a8153600a8504945084610e7f57509392505050565b5f8072184f03e93ff9f4daa797ed6e38ed64bf6a1f0160401b8310610eee5772184f03e93ff9f4daa797ed6e38ed64bf6a1f0160401b830492506040015b6d04ee2d6d415b85acef81000000008310610f1a576d04ee2d6d415b85acef8100000000830492506020015b662386f26fc100008310610f3857662386f26fc10000830492506010015b6305f5e1008310610f50576305f5e100830492506008015b6127108310610f6457612710830492506004015b60648310610f76576064830492506002015b600a831061027e5760010192915050565b6001600160e01b03198116811461060a575f5ffd5b5f60208284031215610fac575f5ffd5b8135610d5781610f87565b5f81518084528060208401602086015e5f602082860101526020601f19601f83011685010191505092915050565b602081525f610d576020830184610fb7565b5f60208284031215611007575f5ffd5b5035919050565b80356001600160a01b0381168114611024575f5ffd5b919050565b5f5f6040838503121561103a575f5ffd5b6110438361100e565b946020939093013593505050565b5f5f83601f840112611061575f5ffd5b50813567ffffffffffffffff811115611078575f5ffd5b60208301915083602082850101111561108f575f5ffd5b9250929050565b5f5f5f5f5f5f606087890312156110ab575f5ffd5b863567ffffffffffffffff8111156110c1575f5ffd5b6110cd89828a01611051565b909750955050602087013567ffffffffffffffff8111156110ec575f5ffd5b6110f889828a01611051565b909550935050604087013567ffffffffffffffff811115611117575f5ffd5b61112389828a01611051565b979a9699509497509295939492505050565b5f5f5f60608486031215611147575f5ffd5b6111508461100e565b925061115e6020850161100e565b929592945050506040919091013590565b5f6020828403121561117f575f5ffd5b610d578261100e565b5f5f60408385031215611199575f5ffd5b6111a28361100e565b9150602083013580151581146111b6575f5ffd5b809150509250929050565b634e487b7160e01b5f52604160045260245ffd5b5f5f5f5f608085870312156111e8575f5ffd5b6111f18561100e565b93506111ff6020860161100e565b925060408501359150606085013567ffffffffffffffff811115611221575f5ffd5b8501601f81018713611231575f5ffd5b803567ffffffffffffffff81111561124b5761124b6111c1565b604051601f8201601f19908116603f0116810167ffffffffffffffff8111828210171561127a5761127a6111c1565b604052818152828201602001891015611291575f5ffd5b816020840160208301375f6020838301015280935050505092959194509250565b5f5f604083850312156112c3575f5ffd5b6112cc8361100e565b91506112da6020840161100e565b90509250929050565b600181811c908216806112f757607f821691505b60208210810361131557634e487b7160e01b5f52602260045260245ffd5b50919050565b5f6001820161133857634e487b7160e01b5f52601160045260245ffd5b5060010190565b81835281816020850137505f828201602090810191909152601f909101601f19169091010190565b606081525f61137a60608301888a61133f565b828103602084015261138d81878961133f565b905082810360408401526113a281858761133f565b9998505050505050505050565b601f8211156104ff57805f5260205f20601f840160051c810160208510156113d45750805b601f840160051c820191505b81811015610a0d575f81556001016113e0565b815167ffffffffffffffff81111561140d5761140d6111c1565b6114218161141b84546112e3565b846113af565b6020601f821160018114611453575f831561143c5750848201515b5f19600385901b1c1916600184901b178455610a0d565b5f84815260208120601f198516915b828110156114825787850151825560209485019460019092019101611462565b508482101561149f57868401515f19600387901b60f8161c191681555b50505050600190811b01905550565b6001600160a01b03858116825284166020820152604081018390526080606082018190525f906114e090830184610fb7565b9695505050505050565b5f602082840312156114fa575f5ffd5b8151610d5781610f87565b5f81518060208401855e5f93019283525090919050565b5f610b1761152a8386611505565b8461150556fea2646970667358221220f177ba5eac852299a10552d5e97cc07865f417f1f95176b3c58be3e62a9e1eb664736f6c634300081c0033",
  "linkReferences": {},
  "deployedLinkReferences": {},
  "immutableReferences": {},
  "inputSourceName": "project/contracts/NFT.sol",
  "buildInfoId": "solc-0_8_28-61f9f19704e4542c846167871ac4b601e2470437"
}