{
  "_format": "hh3-artifact-1",
  "contractName": "NFTMarket",
  "sourceName": "contracts/NFTMarket.sol",
  "abi": [
    {
      "inputs": [
        {
          "internalType": "address",
          "name": "nftContract",
          "type": "address"
        }
      ],
      "stateMutability": "nonpayable",
      "type": "constructor"
    },
    {
      "inputs": [
        {
          "internalType": "address",
          "name": "owner",
          "type": "address"
        }
      ],
      "name": "OwnableInvalidOwner",
      "type": "error"
    },
    {
      "inputs": [
        {
          "internalType": "address",
          "name": "account",
          "type": "address"
        }
      ],
      "name": "OwnableUnauthorizedAccount",
      "type": "error"
    },
    {
      "anonymous": false,
      "inputs": [
        {
          "indexed": true,
          "internalType": "address",
          "name": "buyer",
          "type": "address"
        },
        {
          "indexed": true,
          "internalType": "uint256",
          "name": "tokenId",
          "type": "uint256"
        },
        {
          "indexed": false,
          "internalType": "uint256",
          "name": "price",
          "type": "uint256"
        },
        {
          "indexed": false,
          "internalType": "uint256",
          "name": "buyAt",
          "type": "uint256"
        }
      ],
      "name": "Buy",
      "type": "event"
    },
    {
      "anonymous": false,
      "inputs": [
        {
          "indexed": true,
          "internalType": "address",
          "name": "seller",
          "type": "address"
        },
        {
          "indexed": true,
          "internalType": "address",
          "name": "nftContract",
          "type": "address"
        },
        {
          "indexed": true,
          "internalType": "uint256",
          "name": "tokenId",
          "type": "uint256"
        },
        {
          "indexed": false,
          "internalType": "uint256",
          "name": "price",
          "type": "uint256"
        },
        {
          "indexed": false,
          "internalType": "uint256",
          "name": "listedAt",
          "type": "uint256"
        }
      ],
      "name": "ItemListed",
      "type": "event"
    },
    {
      "anonymous": false,
      "inputs": [
        {
          "indexed": true,
          "internalType": "address",
          "name": "seller",
          "type": "address"
        },
        {
          "indexed": true,
          "internalType": "uint256",
          "name": "tokenId",
          "type": "uint256"
        },
        {
          "indexed": false,
          "internalType": "uint256",
          "name": "unlistedAt",
          "type": "uint256"
        }
      ],
      "name": "ItemUnlisted",
      "type": "event"
    },
    {
      "anonymous": false,
      "inputs": [
        {
          "indexed": true,
          "internalType": "address",
          "name": "previousOwner",
          "type": "address"
        },
        {
          "indexed": true,
          "internalType": "address",
          "name": "newOwner",
          "type": "address"
        }
      ],
      "name": "OwnershipTransferred",
      "type": "event"
    },
    {
      "anonymous": false,
      "inputs": [
        {
          "indexed": true,
          "internalType": "address",
          "name": "owner",
          "type": "address"
        },
        {
          "indexed": true,
          "internalType": "uint256",
          "name": "tokenId",
          "type": "uint256"
        },
        {
          "indexed": false,
          "internalType": "uint256",
          "name": "price",
          "type": "uint256"
        },
        {
          "indexed": false,
          "internalType": "uint256",
          "name": "setAt",
          "type": "uint256"
        }
      ],
      "name": "SetPrice",
      "type": "event"
    },
    {
      "anonymous": false,
      "inputs": [
        {
          "indexed": true,
          "internalType": "address",
          "name": "seller",
          "type": "address"
        },
        {
          "indexed": true,
          "internalType": "address",
          "name": "to",
          "type": "address"
        },
        {
          "indexed": true,
          "internalType": "uint256",
          "name": "tokenId",
          "type": "uint256"
        },
        {
          "indexed": false,
          "internalType": "uint256",
          "name": "transferAt",
          "type": "uint256"
        }
      ],
      "name": "Transfer",
      "type": "event"
    },
    {
      "inputs": [
        {
          "internalType": "uint256",
          "name": "tokenId",
          "type": "uint256"
        }
      ],
      "name": "buy",
      "outputs": [],
      "stateMutability": "payable",
      "type": "function"
    },
    {
      "inputs": [
        {
          "internalType": "uint256",
          "name": "",
          "type": "uint256"
        }
      ],
      "name": "isListed",
      "outputs": [
        {
          "internalType": "bool",
          "name": "",
          "type": "bool"
        }
      ],
      "stateMutability": "view",
      "type": "function"
    },
    {
      "inputs": [
        {
          "internalType": "uint256",
          "name": "tokenId",
          "type": "uint256"
        },
        {
          "internalType": "uint256",
          "name": "price",
          "type": "uint256"
        }
      ],
      "name": "list",
      "outputs": [],
      "stateMutability": "nonpayable",
      "type": "function"
    },
    {
      "inputs": [
        {
          "internalType": "uint256",
          "name": "",
          "type": "uint256"
        }
      ],
      "name": "listPrice",
      "outputs": [
        {
          "internalType": "uint256",
          "name": "",
          "type": "uint256"
        }
      ],
      "stateMutability": "view",
      "type": "function"
    },
    {
      "inputs": [
        {
          "internalType": "uint256",
          "name": "pageNum",
          "type": "uint256"
        },
        {
          "internalType": "uint256",
          "name": "pageSize",
          "type": "uint256"
        }
      ],
      "name": "listTokens",
      "outputs": [
        {
          "internalType": "uint256[]",
          "name": "tokenIds",
          "type": "uint256[]"
        },
        {
          "internalType": "string[]",
          "name": "tokenUris",
          "type": "string[]"
        },
        {
          "internalType": "uint256[]",
          "name": "prices",
          "type": "uint256[]"
        }
      ],
      "stateMutability": "view",
      "type": "function"
    },
    {
      "inputs": [],
      "name": "nft",
      "outputs": [
        {
          "internalType": "contract INFT",
          "name": "",
          "type": "address"
        }
      ],
      "stateMutability": "view",
      "type": "function"
    },
    {
      "inputs": [],
      "name": "owner",
      "outputs": [
        {
          "internalType": "address",
          "name": "",
          "type": "address"
        }
      ],
      "stateMutability": "view",
      "type": "function"
    },
    {
      "inputs": [],
      "name": "renounceOwnership",
      "outputs": [],
      "stateMutability": "nonpayable",
      "type": "function"
    },
    {
      "inputs": [
        {
          "internalType": "uint256",
          "name": "tokenId",
          "type": "uint256"
        },
        {
          "internalType": "uint256",
          "name": "price",
          "type": "uint256"
        }
      ],
      "name": "setPrice",
      "outputs": [],
      "stateMutability": "nonpayable",
      "type": "function"
    },
    {
      "inputs": [],
      "name": "totalListed",
      "outputs": [
        {
          "internalType": "uint256",
          "name": "",
          "type": "uint256"
        }
      ],
      "stateMutability": "view",
      "type": "function"
    },
    {
      "inputs": [
        {
          "internalType": "address",
          "name": "newOwner",
          "type": "address"
        }
      ],
      "name": "transferOwnership",
      "outputs": [],
      "stateMutability": "nonpayable",
      "type": "function"
    },
    {
      "inputs": [
        {
          "internalType": "uint256",
          "name": "tokenId",
          "type": "uint256"
        }
      ],
      "name": "unlist",
      "outputs": [],
      "stateMutability": "nonpayable",
      "type": "function"
    }
  ],
  "bytecode": "0x60a060405234801561000f575f5ffd5b5060405161171938038061171983398101604081905261002e916100bd565b338061005357604051631e4fbdf760e01b81525f600482015260240160405180910390fd5b61005c8161006e565b506001600160a01b03166080526100ea565b5f80546001600160a01b038381166001600160a01b0319831681178455604051919092169283917f8be0079c531659141344cd1fd0a4f28419497f9722a3daafe3b4186f6b6457e09190a35050565b5f602082840312156100cd575f5ffd5b81516001600160a01b03811681146100e3575f5ffd5b9392505050565b6080516115cb61014e5f395f818160ba01528181610293015281816103f101528181610485015281816105830152818161063d0152818161089e0152818161098001528181610dcc01528181610efe0152818161103501526110c901526115cb5ff3fe6080604052600436106100a5575f3560e01c8063cf92f6f411610062578063cf92f6f4146101a2578063d96a094a146101b6578063e30e5ae9146101c9578063f2fde38b146101f7578063f7d9757714610216578063fcce488314610235575f5ffd5b806347ccca02146100a957806350fd7367146100f9578063715018a61461011a57806387d81f7c1461012e5780638da5cb5b14610167578063bf5a4dd314610183575b5f5ffd5b3480156100b4575f5ffd5b506100dc7f000000000000000000000000000000000000000000000000000000000000000081565b6040516001600160a01b0390911681526020015b60405180910390f35b348015610104575f5ffd5b5061011861011336600461122c565b610273565b005b348015610125575f5ffd5b506101186105dd565b348015610139575f5ffd5b5061015961014836600461124c565b60036020525f908152604090205481565b6040519081526020016100f0565b348015610172575f5ffd5b505f546001600160a01b03166100dc565b34801561018e575f5ffd5b5061011861019d36600461124c565b6105f0565b3480156101ad575f5ffd5b50600154610159565b6101186101c436600461124c565b610810565b3480156101d4575f5ffd5b506101e86101e336600461122c565b610ba4565b6040516100f09392919061129d565b348015610202575f5ffd5b50610118610211366004611359565b610ea1565b348015610221575f5ffd5b5061011861023036600461122c565b610ede565b348015610240575f5ffd5b5061026361024f36600461124c565b60026020525f908152604090205460ff1681565b60405190151581526020016100f0565b6040516331a9108f60e11b81526004810183905233906001600160a01b037f00000000000000000000000000000000000000000000000000000000000000001690636352211e90602401602060405180830381865afa1580156102d8573d5f5f3e3d5ffd5b505050506040513d601f19601f820116820180604052508101906102fc919061137b565b6001600160a01b0316146103435760405162461bcd60e51b81526020600482015260096024820152683737ba1037bbb732b960b91b60448201526064015b60405180910390fd5b5f8281526002602052604090205460ff16156103925760405162461bcd60e51b815260206004820152600e60248201526d185b1c9958591e481b1a5cdd195960921b604482015260640161033a565b5f81116103d15760405162461bcd60e51b815260206004820152600d60248201526c696e76616c696420707269636560981b604482015260640161033a565b60405163020604bf60e21b81526004810183905230906001600160a01b037f0000000000000000000000000000000000000000000000000000000000000000169063081812fc90602401602060405180830381865afa158015610436573d5f5f3e3d5ffd5b505050506040513d601f19601f8201168201806040525081019061045a919061137b565b6001600160a01b031614806104f6575060405163e985e9c560e01b81523360048201523060248201527f00000000000000000000000000000000000000000000000000000000000000006001600160a01b03169063e985e9c590604401602060405180830381865afa1580156104d2573d5f5f3e3d5ffd5b505050506040513d601f19601f820116820180604052508101906104f69190611396565b6105125760405162461bcd60e51b815260040161033a906113b5565b600180545f84815260046020908152604080832084905583850185557fb10e2d527612073b26eecdfd717e6a320cf44b4afac2b0732d9fcbe2b7fa0cf690930186905560028152828220805460ff1916909417909355600383528190208390558051838152429281019290925283917f00000000000000000000000000000000000000000000000000000000000000006001600160a01b03169133917f91623fbd639d8d503fe2e77aab334b032313685f1b28c84d838c4b647b1f5d9d910160405180910390a45050565b6105e56111b1565b6105ee5f6111dd565b565b5f8181526002602052604090205460ff1661061d5760405162461bcd60e51b815260040161033a9061142b565b6040516331a9108f60e11b81526004810182905233906001600160a01b037f00000000000000000000000000000000000000000000000000000000000000001690636352211e90602401602060405180830381865afa158015610682573d5f5f3e3d5ffd5b505050506040513d601f19601f820116820180604052508101906106a6919061137b565b6001600160a01b031614806106d35750336106c85f546001600160a01b031690565b6001600160a01b0316145b61070f5760405162461bcd60e51b815260206004820152600d60248201526c3737903832b936b4b9b9b4b7b760991b604482015260640161033a565b5f818152600460205260408120546001805491929161072f908290611463565b8154811061073f5761073f61147c565b905f5260205f20015490508281146107855780600183815481106107655761076561147c565b5f9182526020808320909101929092558281526004909152604090208290555b600180548061079657610796611490565b5f82815260208082205f19908401810183905590920190925584825260048152604080832083905560028252808320805460ff1916905560038252808320929092559051428152849133917e3e6e0be605eff13872c86b399dfa13c49127a43d122dbdf776225c03deca93910160405180910390a3505050565b5f8181526002602052604090205460ff1661083d5760405162461bcd60e51b815260040161033a9061142b565b5f818152600360205260409020543481146108865760405162461bcd60e51b815260206004820152600960248201526862616420707269636560b81b604482015260640161033a565b6040516331a9108f60e11b8152600481018390525f907f00000000000000000000000000000000000000000000000000000000000000006001600160a01b031690636352211e90602401602060405180830381865afa1580156108eb573d5f5f3e3d5ffd5b505050506040513d601f19601f8201168201806040525081019061090f919061137b565b9050336001600160a01b038216036109545760405162461bcd60e51b815260206004820152600860248201526773656c662062757960c01b604482015260640161033a565b604051632142170760e11b81526001600160a01b038281166004830152336024830152604482018590527f000000000000000000000000000000000000000000000000000000000000000016906342842e0e906064015f604051808303815f87803b1580156109c1575f5ffd5b505af11580156109d3573d5f5f3e3d5ffd5b505050505f816001600160a01b0316346040515f6040518083038185875af1925050503d805f8114610a20576040519150601f19603f3d011682016040523d82523d5f602084013e610a25565b606091505b5050905080610a615760405162461bcd60e51b81526020600482015260086024820152671c185e4819985a5b60c21b604482015260640161033a565b5f8481526004602052604081205460018054919291610a81908290611463565b81548110610a9157610a9161147c565b905f5260205f2001549050858114610ad7578060018381548110610ab757610ab761147c565b5f9182526020808320909101929092558281526004909152604090208290555b6001805480610ae857610ae8611490565b5f82815260208082205f19908401810183905590920190925587825260048152604080832083905560028252808320805460ff19169055600382528083209290925581518781524291810191909152879133917fbeae048c6d270d9469f86cf6e8fedda3c60ad770f16c24c9fc131c8e9a09101d910160405180910390a3604051428152869033907e3e6e0be605eff13872c86b399dfa13c49127a43d122dbdf776225c03deca939060200160405180910390a3505050505050565b606080606060018510158015610bb957505f84115b610bf25760405162461bcd60e51b815260206004820152600a60248201526962616420706167696e6760b01b604482015260640161033a565b60018054905f908690610c059089611463565b610c0f91906114a4565b9050818110610c6857604080515f80825260208201818152828401909352909190610c4a565b6060815260200190600190039081610c355790505b50604080515f81526020810190915291965094509250610e9a915050565b5f610c7387836114cf565b905082811115610c805750815b5f610c8b8383611463565b90508067ffffffffffffffff811115610ca657610ca66114bb565b604051908082528060200260200182016040528015610ccf578160200160208202803683370190505b5096508067ffffffffffffffff811115610ceb57610ceb6114bb565b604051908082528060200260200182016040528015610d1e57816020015b6060815260200190600190039081610d095790505b5095508067ffffffffffffffff811115610d3a57610d3a6114bb565b604051908082528060200260200182016040528015610d63578160200160208202803683370190505b5094505f5b81811015610e94575f6001610d7d83876114cf565b81548110610d8d57610d8d61147c565b905f5260205f200154905080898381518110610dab57610dab61147c565b602090810291909101015260405163c87b56dd60e01b8152600481018290527f00000000000000000000000000000000000000000000000000000000000000006001600160a01b03169063c87b56dd906024015f60405180830381865afa158015610e18573d5f5f3e3d5ffd5b505050506040513d5f823e601f3d908101601f19168201604052610e3f91908101906114e2565b888381518110610e5157610e5161147c565b602002602001018190525060035f8281526020019081526020015f2054878381518110610e8057610e8061147c565b602090810291909101015250600101610d68565b50505050505b9250925092565b610ea96111b1565b6001600160a01b038116610ed257604051631e4fbdf760e01b81525f600482015260240161033a565b610edb816111dd565b50565b6040516331a9108f60e11b81526004810183905233906001600160a01b037f00000000000000000000000000000000000000000000000000000000000000001690636352211e90602401602060405180830381865afa158015610f43573d5f5f3e3d5ffd5b505050506040513d601f19601f82011682018060405250810190610f67919061137b565b6001600160a01b031614610fa95760405162461bcd60e51b81526020600482015260096024820152683737ba1037bbb732b960b91b604482015260640161033a565b5f8281526002602052604090205460ff16610fd65760405162461bcd60e51b815260040161033a9061142b565b5f81116110155760405162461bcd60e51b815260206004820152600d60248201526c696e76616c696420707269636560981b604482015260640161033a565b60405163020604bf60e21b81526004810183905230906001600160a01b037f0000000000000000000000000000000000000000000000000000000000000000169063081812fc90602401602060405180830381865afa15801561107a573d5f5f3e3d5ffd5b505050506040513d601f19601f8201168201806040525081019061109e919061137b565b6001600160a01b0316148061113a575060405163e985e9c560e01b81523360048201523060248201527f00000000000000000000000000000000000000000000000000000000000000006001600160a01b03169063e985e9c590604401602060405180830381865afa158015611116573d5f5f3e3d5ffd5b505050506040513d601f19601f8201168201806040525081019061113a9190611396565b6111565760405162461bcd60e51b815260040161033a906113b5565b5f828152600360205260409081902082905551829033907f0577bef21f74291b2dff5d793239ecb6043ddfcd713e8222c2b603d739b0d13a906111a59085904290918252602082015260400190565b60405180910390a35050565b5f546001600160a01b031633146105ee5760405163118cdaa760e01b815233600482015260240161033a565b5f80546001600160a01b038381166001600160a01b0319831681178455604051919092169283917f8be0079c531659141344cd1fd0a4f28419497f9722a3daafe3b4186f6b6457e09190a35050565b5f5f6040838503121561123d575f5ffd5b50508035926020909101359150565b5f6020828403121561125c575f5ffd5b5035919050565b5f8151808452602084019350602083015f5b82811015611293578151865260209586019590910190600101611275565b5093949350505050565b606081525f6112af6060830186611263565b828103602084015280855180835260208301915060208160051b840101602088015f5b8381101561132457601f19868403018552815180518085528060208301602087015e5f602082870101526020601f19601f830116860101945050506020820191506020850194506001810190506112d2565b505085810360408701526113388188611263565b9998505050505050505050565b6001600160a01b0381168114610edb575f5ffd5b5f60208284031215611369575f5ffd5b813561137481611345565b9392505050565b5f6020828403121561138b575f5ffd5b815161137481611345565b5f602082840312156113a6575f5ffd5b81518015158114611374575f5ffd5b60208082526050908201527f4e46544d61726b65743a20617070726f7665207468697320636f6e747261637460408201527f2066697273742028617070726f76652073696e676c65204e4654206f7220736560608201526f74417070726f76616c466f72416c6c2960801b608082015260a00190565b6020808252600a90820152691b9bdd081b1a5cdd195960b21b604082015260600190565b634e487b7160e01b5f52601160045260245ffd5b818103818111156114765761147661144f565b92915050565b634e487b7160e01b5f52603260045260245ffd5b634e487b7160e01b5f52603160045260245ffd5b80820281158282048414176114765761147661144f565b634e487b7160e01b5f52604160045260245ffd5b808201808211156114765761147661144f565b5f602082840312156114f2575f5ffd5b815167ffffffffffffffff811115611508575f5ffd5b8201601f81018413611518575f5ffd5b805167ffffffffffffffff811115611532576115326114bb565b604051601f8201601f19908116603f0116810167ffffffffffffffff81118282101715611561576115616114bb565b604052818152828201602001861015611578575f5ffd5b8160208401602083015e5f9181016020019190915294935050505056fea2646970667358221220afab1b36dded8f7216cf3db3888ae243c96318aaa55da55fdbefefdc04e14b4d64736f6c634300081c0033",
  "linkReferences": {},
  "deployedLinkReferences": {},
  "immutableReferences": {
    "359": [
      {
        "length": 32,
        "start": 186
      },
      {
        "length": 32,
        "start": 659
      },
      {
        "length": 32,
        "start": 1009
      },
      {
        "length": 32,
        "start": 1157
      },
      {
        "length": 32,
        "start": 1411
      },
      {
        "length": 32,
        "start": 1597
      },
      {
        "length": 32,
        "start": 2206
      },
      {
        "length": 32,
        "start": 2432
      },
      {
        "length": 32,
        "start": 3532
      },
      {
        "length": 32,
        "start": 3838
      },
      {
        "length": 32,
        "start": 4149
      },
      {
        "length": 32,
        "start": 4297
      }
    ]
  },
  "inputSourceName": "project/contracts/NFTMarket.sol",
  "buildInfoId": "solc-0_8_28-3853bfedec51d5d1111a2feb44078770d38a19ff"
}