{
  "_format": "hh3-artifact-1",
  "contractName": "MyToken",
  "sourceName": "contracts/MyToken.sol",
  "abi": [
    {
      "inputs": [],
      "stateMutability": "nonpayable",
      "type": "constructor"
    },
    {
      "inputs": [],
      "name": "ERC721EnumerableForbiddenBatchMint",
      "type": "error"
    },
    {
      "inputs": [
        {
          "internalType": "address",
          "name": "sender",
          "type": "address"
        },
        {
          "internalType": "uint256",
          "name": "tokenId",
          "type": "uint256"
        },
        {
          "internalType": "address",
          "name": "owner",
          "type": "address"
        }
      ],
      "name": "ERC721IncorrectOwner",
      "type": "error"
    },
    {
      "inputs": [
        {
          "internalType": "address",
          "name": "operator",
          "type": "address"
        },
        {
          "internalType": "uint256",
          "name": "tokenId",
          "type": "uint256"
        }
      ],
      "name": "ERC721InsufficientApproval",
      "type": "error"
    },
    {
      "inputs": [
        {
          "internalType": "address",
          "name": "approver",
          "type": "address"
        }
      ],
      "name": "ERC721InvalidApprover",
      "type": "error"
    },
    {
      "inputs": [
        {
          "internalType": "address",
          "name": "operator",
          "type": "address"
        }
      ],
      "name": "ERC721InvalidOperator",
      "type": "error"
    },
    {
      "inputs": [
        {
          "internalType": "address",
          "name": "owner",
          "type": "address"
        }
      ],
      "name": "ERC721InvalidOwner",
      "type": "error"
    },
    {
      "inputs": [
        {
          "internalType": "address",
          "name": "receiver",
          "type": "address"
        }
      ],
      "name": "ERC721InvalidReceiver",
      "type": "error"
    },
    {
      "inputs": [
        {
          "internalType": "address",
          "name": "sender",
          "type": "address"
        }
      ],
      "name": "ERC721InvalidSender",
      "type": "error"
    },
    {
      "inputs": [
        {
          "internalType": "uint256",
          "name": "tokenId",
          "type": "uint256"
        }
      ],
      "name": "ERC721NonexistentToken",
      "type": "error"
    },
    {
      "inputs": [
        {
          "internalType": "address",
          "name": "owner",
          "type": "address"
        },
        {
          "internalType": "uint256",
          "name": "index",
          "type": "uint256"
        }
      ],
      "name": "ERC721OutOfBoundsIndex",
      "type": "error"
    },
    {
      "inputs": [
        {
          "internalType": "address",
          "name": "owner",
          "type": "address"
        }
      ],
      "name": "OwnableInvalidOwner",
      "type": "error"
    },
    {
      "inputs": [
        {
          "internalType": "address",
          "name": "account",
          "type": "address"
        }
      ],
      "name": "OwnableUnauthorizedAccount",
      "type": "error"
    },
    {
      "anonymous": false,
      "inputs": [
        {
          "indexed": true,
          "internalType": "address",
          "name": "owner",
          "type": "address"
        },
        {
          "indexed": true,
          "internalType": "address",
          "name": "approved",
          "type": "address"
        },
        {
          "indexed": true,
          "internalType": "uint256",
          "name": "tokenId",
          "type": "uint256"
        }
      ],
      "name": "Approval",
      "type": "event"
    },
    {
      "anonymous": false,
      "inputs": [
        {
          "indexed": true,
          "internalType": "address",
          "name": "owner",
          "type": "address"
        },
        {
          "indexed": true,
          "internalType": "address",
          "name": "operator",
          "type": "address"
        },
        {
          "indexed": false,
          "internalType": "bool",
          "name": "approved",
          "type": "bool"
        }
      ],
      "name": "ApprovalForAll",
      "type": "event"
    },
    {
      "anonymous": false,
      "inputs": [
        {
          "indexed": true,
          "internalType": "address",
          "name": "previousOwner",
          "type": "address"
        },
        {
          "indexed": true,
          "internalType": "address",
          "name": "newOwner",
          "type": "address"
        }
      ],
      "name": "OwnershipTransferred",
      "type": "event"
    },
    {
      "anonymous": false,
      "inputs": [
        {
          "indexed": true,
          "internalType": "address",
          "name": "from",
          "type": "address"
        },
        {
          "indexed": true,
          "internalType": "address",
          "name": "to",
          "type": "address"
        },
        {
          "indexed": true,
          "internalType": "uint256",
          "name": "tokenId",
          "type": "uint256"
        }
      ],
      "name": "Transfer",
      "type": "event"
    },
    {
      "inputs": [
        {
          "internalType": "uint256",
          "name": "",
          "type": "uint256"
        }
      ],
      "name": "_isList",
      "outputs": [
        {
          "internalType": "bool",
          "name": "",
          "type": "bool"
        }
      ],
      "stateMutability": "view",
      "type": "function"
    },
    {
      "inputs": [
        {
          "internalType": "uint256",
          "name": "",
          "type": "uint256"
        }
      ],
      "name": "_listTokenIdIndex",
      "outputs": [
        {
          "internalType": "uint256",
          "name": "",
          "type": "uint256"
        }
      ],
      "stateMutability": "view",
      "type": "function"
    },
    {
      "inputs": [
        {
          "internalType": "uint256",
          "name": "",
          "type": "uint256"
        }
      ],
      "name": "_listTokenPrice",
      "outputs": [
        {
          "internalType": "uint256",
          "name": "",
          "type": "uint256"
        }
      ],
      "stateMutability": "view",
      "type": "function"
    },
    {
      "inputs": [
        {
          "internalType": "address",
          "name": "to",
          "type": "address"
        },
        {
          "internalType": "uint256",
          "name": "tokenId",
          "type": "uint256"
        }
      ],
      "name": "approve",
      "outputs": [],
      "stateMutability": "nonpayable",
      "type": "function"
    },
    {
      "inputs": [
        {
          "internalType": "address",
          "name": "owner",
          "type": "address"
        }
      ],
      "name": "balanceOf",
      "outputs": [
        {
          "internalType": "uint256",
          "name": "",
          "type": "uint256"
        }
      ],
      "stateMutability": "view",
      "type": "function"
    },
    {
      "inputs": [
        {
          "internalType": "uint256",
          "name": "tokenId",
          "type": "uint256"
        }
      ],
      "name": "buy",
      "outputs": [],
      "stateMutability": "payable",
      "type": "function"
    },
    {
      "inputs": [
        {
          "internalType": "uint256",
          "name": "tokenId",
          "type": "uint256"
        }
      ],
      "name": "getApproved",
      "outputs": [
        {
          "internalType": "address",
          "name": "",
          "type": "address"
        }
      ],
      "stateMutability": "view",
      "type": "function"
    },
    {
      "inputs": [
        {
          "internalType": "address",
          "name": "owner",
          "type": "address"
        },
        {
          "internalType": "address",
          "name": "operator",
          "type": "address"
        }
      ],
      "name": "isApprovedForAll",
      "outputs": [
        {
          "internalType": "bool",
          "name": "",
          "type": "bool"
        }
      ],
      "stateMutability": "view",
      "type": "function"
    },
    {
      "inputs": [
        {
          "internalType": "uint256",
          "name": "pageNum",
          "type": "uint256"
        },
        {
          "internalType": "uint256",
          "name": "pageSize",
          "type": "uint256"
        }
      ],
      "name": "listTokens",
      "outputs": [
        {
          "internalType": "uint256[]",
          "name": "tokenIds",
          "type": "uint256[]"
        },
        {
          "internalType": "string[]",
          "name": "tokenUris",
          "type": "string[]"
        },
        {
          "internalType": "uint256[]",
          "name": "tokenPrice",
          "type": "uint256[]"
        }
      ],
      "stateMutability": "view",
      "type": "function"
    },
    {
      "inputs": [
        {
          "internalType": "string",
          "name": "_tokenURI",
          "type": "string"
        }
      ],
      "name": "mint",
      "outputs": [],
      "stateMutability": "nonpayable",
      "type": "function"
    },
    {
      "inputs": [],
      "name": "name",
      "outputs": [
        {
          "internalType": "string",
          "name": "",
          "type": "string"
        }
      ],
      "stateMutability": "view",
      "type": "function"
    },
    {
      "inputs": [],
      "name": "owner",
      "outputs": [
        {
          "internalType": "address",
          "name": "",
          "type": "address"
        }
      ],
      "stateMutability": "view",
      "type": "function"
    },
    {
      "inputs": [
        {
          "internalType": "uint256",
          "name": "tokenId",
          "type": "uint256"
        }
      ],
      "name": "ownerOf",
      "outputs": [
        {
          "internalType": "address",
          "name": "",
          "type": "address"
        }
      ],
      "stateMutability": "view",
      "type": "function"
    },
    {
      "inputs": [
        {
          "internalType": "uint256",
          "name": "tokenId",
          "type": "uint256"
        },
        {
          "internalType": "uint256",
          "name": "price",
          "type": "uint256"
        }
      ],
      "name": "putOnSale",
      "outputs": [],
      "stateMutability": "nonpayable",
      "type": "function"
    },
    {
      "inputs": [
        {
          "internalType": "uint256",
          "name": "tokenId",
          "type": "uint256"
        }
      ],
      "name": "removeFromSale",
      "outputs": [],
      "stateMutability": "nonpayable",
      "type": "function"
    },
    {
      "inputs": [],
      "name": "renounceOwnership",
      "outputs": [],
      "stateMutability": "nonpayable",
      "type": "function"
    },
    {
      "inputs": [
        {
          "internalType": "address",
          "name": "from",
          "type": "address"
        },
        {
          "internalType": "address",
          "name": "to",
          "type": "address"
        },
        {
          "internalType": "uint256",
          "name": "tokenId",
          "type": "uint256"
        }
      ],
      "name": "safeTransferFrom",
      "outputs": [],
      "stateMutability": "nonpayable",
      "type": "function"
    },
    {
      "inputs": [
        {
          "internalType": "address",
          "name": "from",
          "type": "address"
        },
        {
          "internalType": "address",
          "name": "to",
          "type": "address"
        },
        {
          "internalType": "uint256",
          "name": "tokenId",
          "type": "uint256"
        },
        {
          "internalType": "bytes",
          "name": "data",
          "type": "bytes"
        }
      ],
      "name": "safeTransferFrom",
      "outputs": [],
      "stateMutability": "nonpayable",
      "type": "function"
    },
    {
      "inputs": [
        {
          "internalType": "address",
          "name": "operator",
          "type": "address"
        },
        {
          "internalType": "bool",
          "name": "approved",
          "type": "bool"
        }
      ],
      "name": "setApprovalForAll",
      "outputs": [],
      "stateMutability": "nonpayable",
      "type": "function"
    },
    {
      "inputs": [
        {
          "internalType": "bytes4",
          "name": "interfaceId",
          "type": "bytes4"
        }
      ],
      "name": "supportsInterface",
      "outputs": [
        {
          "internalType": "bool",
          "name": "",
          "type": "bool"
        }
      ],
      "stateMutability": "view",
      "type": "function"
    },
    {
      "inputs": [],
      "name": "symbol",
      "outputs": [
        {
          "internalType": "string",
          "name": "",
          "type": "string"
        }
      ],
      "stateMutability": "view",
      "type": "function"
    },
    {
      "inputs": [
        {
          "internalType": "uint256",
          "name": "index",
          "type": "uint256"
        }
      ],
      "name": "tokenByIndex",
      "outputs": [
        {
          "internalType": "uint256",
          "name": "",
          "type": "uint256"
        }
      ],
      "stateMutability": "view",
      "type": "function"
    },
    {
      "inputs": [
        {
          "internalType": "uint256",
          "name": "",
          "type": "uint256"
        }
      ],
      "name": "tokenCreators",
      "outputs": [
        {
          "internalType": "address",
          "name": "",
          "type": "address"
        }
      ],
      "stateMutability": "view",
      "type": "function"
    },
    {
      "inputs": [
        {
          "internalType": "address",
          "name": "owner",
          "type": "address"
        },
        {
          "internalType": "uint256",
          "name": "index",
          "type": "uint256"
        }
      ],
      "name": "tokenOfOwnerByIndex",
      "outputs": [
        {
          "internalType": "uint256",
          "name": "",
          "type": "uint256"
        }
      ],
      "stateMutability": "view",
      "type": "function"
    },
    {
      "inputs": [
        {
          "internalType": "uint256",
          "name": "",
          "type": "uint256"
        }
      ],
      "name": "tokenPrices",
      "outputs": [
        {
          "internalType": "uint256",
          "name": "",
          "type": "uint256"
        }
      ],
      "stateMutability": "view",
      "type": "function"
    },
    {
      "inputs": [
        {
          "internalType": "uint256",
          "name": "tokenId",
          "type": "uint256"
        }
      ],
      "name": "tokenURI",
      "outputs": [
        {
          "internalType": "string",
          "name": "",
          "type": "string"
        }
      ],
      "stateMutability": "view",
      "type": "function"
    },
    {
      "inputs": [
        {
          "internalType": "address",
          "name": "owner",
          "type": "address"
        },
        {
          "internalType": "uint256",
          "name": "offset",
          "type": "uint256"
        },
        {
          "internalType": "uint256",
          "name": "limit",
          "type": "uint256"
        }
      ],
      "name": "tokensOfOwner",
      "outputs": [
        {
          "internalType": "uint256[]",
          "name": "tokenIds",
          "type": "uint256[]"
        },
        {
          "internalType": "string[]",
          "name": "tokenUris",
          "type": "string[]"
        }
      ],
      "stateMutability": "view",
      "type": "function"
    },
    {
      "inputs": [],
      "name": "totalSupply",
      "outputs": [
        {
          "internalType": "uint256",
          "name": "",
          "type": "uint256"
        }
      ],
      "stateMutability": "view",
      "type": "function"
    },
    {
      "inputs": [
        {
          "internalType": "address",
          "name": "from",
          "type": "address"
        },
        {
          "internalType": "address",
          "name": "to",
          "type": "address"
        },
        {
          "internalType": "uint256",
          "name": "tokenId",
          "type": "uint256"
        }
      ],
      "name": "transferFrom",
      "outputs": [],
      "stateMutability": "nonpayable",
      "type": "function"
    },
    {
      "inputs": [
        {
          "internalType": "address",
          "name": "newOwner",
          "type": "address"
        }
      ],
      "name": "transferOwnership",
      "outputs": [],
      "stateMutability": "nonpayable",
      "type": "function"
    }
  ],
  "bytecode": "0x608060405234801561000f575f5ffd5b50336040518060400160405280600981526020017f53696d706c654e465400000000000000000000000000000000000000000000008152506040518060400160405280600481526020017f534e465400000000000000000000000000000000000000000000000000000000815250815f908161008b9190610423565b50806001908161009b9190610423565b5050505f73ffffffffffffffffffffffffffffffffffffffff168173ffffffffffffffffffffffffffffffffffffffff160361010e575f6040517f1e4fbdf70000000000000000000000000000000000000000000000000000000081526004016101059190610531565b60405180910390fd5b61011d8161012360201b60201c565b5061054a565b5f600a5f9054906101000a900473ffffffffffffffffffffffffffffffffffffffff16905081600a5f6101000a81548173ffffffffffffffffffffffffffffffffffffffff021916908373ffffffffffffffffffffffffffffffffffffffff1602179055508173ffffffffffffffffffffffffffffffffffffffff168173ffffffffffffffffffffffffffffffffffffffff167f8be0079c531659141344cd1fd0a4f28419497f9722a3daafe3b4186f6b6457e060405160405180910390a35050565b5f81519050919050565b7f4e487b71000000000000000000000000000000000000000000000000000000005f52604160045260245ffd5b7f4e487b71000000000000000000000000000000000000000000000000000000005f52602260045260245ffd5b5f600282049050600182168061026157607f821691505b6020821081036102745761027361021d565b5b50919050565b5f819050815f5260205f209050919050565b5f6020601f8301049050919050565b5f82821b905092915050565b5f600883026102d67fffffffffffffffffffffffffffffffffffffffffffffffffffffffffffffffff8261029b565b6102e0868361029b565b95508019841693508086168417925050509392505050565b5f819050919050565b5f819050919050565b5f61032461031f61031a846102f8565b610301565b6102f8565b9050919050565b5f819050919050565b61033d8361030a565b6103516103498261032b565b8484546102a7565b825550505050565b5f5f905090565b610368610359565b610373818484610334565b505050565b5b818110156103965761038b5f82610360565b600181019050610379565b5050565b601f8211156103db576103ac8161027a565b6103b58461028c565b810160208510156103c4578190505b6103d86103d08561028c565b830182610378565b50505b505050565b5f82821c905092915050565b5f6103fb5f19846008026103e0565b1980831691505092915050565b5f61041383836103ec565b9150826002028217905092915050565b61042c826101e6565b67ffffffffffffffff811115610445576104446101f0565b5b61044f825461024a565b61045a82828561039a565b5f60209050601f83116001811461048b575f8415610479578287015190505b6104838582610408565b8655506104ea565b601f1984166104998661027a565b5f5b828110156104c05784890151825560018201915060208501945060208101905061049b565b868310156104dd57848901516104d9601f8916826103ec565b8355505b6001600288020188555050505b505050505050565b5f73ffffffffffffffffffffffffffffffffffffffff82169050919050565b5f61051b826104f2565b9050919050565b61052b81610511565b82525050565b5f6020820190506105445f830184610522565b92915050565b6137e2806105575f395ff3fe6080604052600436106101cc575f3560e01c8063715018a6116100f6578063cef1ac2011610094578063e30e5ae911610063578063e30e5ae9146106bb578063e5afe3e6146106f9578063e985e9c514610735578063f2fde38b14610771576101cc565b8063cef1ac20146105ff578063d85d3d271461063b578063d96a094a14610663578063e0fd045f1461067f576101cc565b8063a22cb465116100d0578063a22cb46514610536578063b88d4fde1461055e578063c839fe9414610586578063c87b56dd146105c3576101cc565b8063715018a6146104cc5780638da5cb5b146104e257806395d89b411461050c576101cc565b806323b872dd1161016e5780634bbfaaf91161013d5780634bbfaaf9146103dc5780634f6ccce7146104185780636352211e1461045457806370a0823114610490576101cc565b806323b872dd146103285780632f745c591461035057806336f7992b1461038c57806342842e0e146103b4576101cc565b8063095ea7b3116101aa578063095ea7b3146102725780631361a3b61461029a57806318160ddd146102c25780631d06f5dd146102ec576101cc565b806301ffc9a7146101d057806306fdde031461020c578063081812fc14610236575b5f5ffd5b3480156101db575f5ffd5b506101f660048036038101906101f191906128b7565b610799565b60405161020391906128fc565b60405180910390f35b348015610217575f5ffd5b506102206107aa565b60405161022d9190612985565b60405180910390f35b348015610241575f5ffd5b5061025c600480360381019061025791906129d8565b610839565b6040516102699190612a42565b60405180910390f35b34801561027d575f5ffd5b5061029860048036038101906102939190612a85565b610854565b005b3480156102a5575f5ffd5b506102c060048036038101906102bb91906129d8565b61086a565b005b3480156102cd575f5ffd5b506102d66108d6565b6040516102e39190612ad2565b60405180910390f35b3480156102f7575f5ffd5b50610312600480360381019061030d91906129d8565b6108e2565b60405161031f9190612ad2565b60405180910390f35b348015610333575f5ffd5b5061034e60048036038101906103499190612aeb565b6108f7565b005b34801561035b575f5ffd5b5061037660048036038101906103719190612a85565b6109f6565b6040516103839190612ad2565b60405180910390f35b348015610397575f5ffd5b506103b260048036038101906103ad9190612b3b565b610a9a565b005b3480156103bf575f5ffd5b506103da60048036038101906103d59190612aeb565b610b23565b005b3480156103e7575f5ffd5b5061040260048036038101906103fd91906129d8565b610b42565b60405161040f91906128fc565b60405180910390f35b348015610423575f5ffd5b5061043e600480360381019061043991906129d8565b610b5f565b60405161044b9190612ad2565b60405180910390f35b34801561045f575f5ffd5b5061047a600480360381019061047591906129d8565b610bd1565b6040516104879190612a42565b60405180910390f35b34801561049b575f5ffd5b506104b660048036038101906104b19190612b79565b610be2565b6040516104c39190612ad2565b60405180910390f35b3480156104d7575f5ffd5b506104e0610c98565b005b3480156104ed575f5ffd5b506104f6610cab565b6040516105039190612a42565b60405180910390f35b348015610517575f5ffd5b50610520610cd3565b60405161052d9190612985565b60405180910390f35b348015610541575f5ffd5b5061055c60048036038101906105579190612bce565b610d63565b005b348015610569575f5ffd5b50610584600480360381019061057f9190612d38565b610d79565b005b348015610591575f5ffd5b506105ac60048036038101906105a79190612db8565b610d9e565b6040516105ba929190612fc2565b60405180910390f35b3480156105ce575f5ffd5b506105e960048036038101906105e491906129d8565b610f8c565b6040516105f69190612985565b60405180910390f35b34801561060a575f5ffd5b50610625600480360381019061062091906129d8565b61102d565b6040516106329190612ad2565b60405180910390f35b348015610646575f5ffd5b50610661600480360381019061065c9190613095565b611042565b005b61067d600480360381019061067891906129d8565b6110db565b005b34801561068a575f5ffd5b506106a560048036038101906106a091906129d8565b611232565b6040516106b29190612a42565b60405180910390f35b3480156106c6575f5ffd5b506106e160048036038101906106dc9190612b3b565b611262565b6040516106f0939291906130dc565b60405180910390f35b348015610704575f5ffd5b5061071f600480360381019061071a91906129d8565b6115e9565b60405161072c9190612ad2565b60405180910390f35b348015610740575f5ffd5b5061075b60048036038101906107569190613126565b6115fe565b60405161076891906128fc565b60405180910390f35b34801561077c575f5ffd5b5061079760048036038101906107929190612b79565b61168c565b005b5f6107a382611710565b9050919050565b60605f80546107b890613191565b80601f01602080910402602001604051908101604052809291908181526020018280546107e490613191565b801561082f5780601f106108065761010080835404028352916020019161082f565b820191905f5260205f20905b81548152906001019060200180831161081257829003601f168201915b5050505050905090565b5f61084382611789565b5061084d8261180f565b9050919050565b6108668282610861611848565b61184f565b5050565b5f600e828154811061087f5761087e6131c1565b5b905f5260205f20018190555060125f8281526020019081526020015f205f905560115f8281526020019081526020015f205f6101000a81549060ff021916905560105f8281526020019081526020015f205f905550565b5f600880549050905090565b6010602052805f5260405f205f915090505481565b5f73ffffffffffffffffffffffffffffffffffffffff168273ffffffffffffffffffffffffffffffffffffffff1603610967575f6040517f64a0ae9200000000000000000000000000000000000000000000000000000000815260040161095e9190612a42565b60405180910390fd5b5f61097a8383610975611848565b611861565b90508373ffffffffffffffffffffffffffffffffffffffff168173ffffffffffffffffffffffffffffffffffffffff16146109f0578382826040517f64283d7b0000000000000000000000000000000000000000000000000000000081526004016109e7939291906131ee565b60405180910390fd5b50505050565b5f610a0083610be2565b8210610a455782826040517fa57d13dc000000000000000000000000000000000000000000000000000000008152600401610a3c929190613223565b60405180910390fd5b60065f8473ffffffffffffffffffffffffffffffffffffffff1673ffffffffffffffffffffffffffffffffffffffff1681526020019081526020015f205f8381526020019081526020015f2054905092915050565b5f600e805490509050600e83908060018154018082558091505060019003905f5260205f20015f90919091909150558060125f8581526020019081526020015f2081905550600160115f8581526020019081526020015f205f6101000a81548160ff0219169083151502179055508160105f8581526020019081526020015f2081905550505050565b610b3d83838360405180602001604052805f815250610d79565b505050565b6011602052805f5260405f205f915054906101000a900460ff1681565b5f610b686108d6565b8210610bad575f826040517fa57d13dc000000000000000000000000000000000000000000000000000000008152600401610ba4929190613223565b60405180910390fd5b60088281548110610bc157610bc06131c1565b5b905f5260205f2001549050919050565b5f610bdb82611789565b9050919050565b5f5f73ffffffffffffffffffffffffffffffffffffffff168273ffffffffffffffffffffffffffffffffffffffff1603610c53575f6040517f89c62b64000000000000000000000000000000000000000000000000000000008152600401610c4a9190612a42565b60405180910390fd5b60035f8373ffffffffffffffffffffffffffffffffffffffff1673ffffffffffffffffffffffffffffffffffffffff1681526020019081526020015f20549050919050565b610ca0611876565b610ca95f6118fd565b565b5f600a5f9054906101000a900473ffffffffffffffffffffffffffffffffffffffff16905090565b606060018054610ce290613191565b80601f0160208091040260200160405190810160405280929190818152602001828054610d0e90613191565b8015610d595780601f10610d3057610100808354040283529160200191610d59565b820191905f5260205f20905b815481529060010190602001808311610d3c57829003601f168201915b5050505050905090565b610d75610d6e611848565b83836119c0565b5050565b610d848484846108f7565b610d98610d8f611848565b85858585611b29565b50505050565b6060805f610dab86610be2565b90505f8486610dba9190613277565b905081811115610dc8578190505b5f8682610dd591906132aa565b90508067ffffffffffffffff811115610df157610df0612c14565b5b604051908082528060200260200182016040528015610e1f5781602001602082028036833780820191505090505b5094508067ffffffffffffffff811115610e3c57610e3b612c14565b5b604051908082528060200260200182016040528015610e6f57816020015b6060815260200190600190039081610e5a5790505b5093505f5f90505b81811015610f80575f8189610e8c9190613277565b90505f610e998b836109f6565b905080888481518110610eaf57610eae6131c1565b5b602002602001018181525050600c5f8281526020019081526020015f208054610ed790613191565b80601f0160208091040260200160405190810160405280929190818152602001828054610f0390613191565b8015610f4e5780601f10610f2557610100808354040283529160200191610f4e565b820191905f5260205f20905b815481529060010190602001808311610f3157829003601f168201915b5050505050878481518110610f6657610f656131c1565b5b602002602001018190525050508080600101915050610e77565b50505050935093915050565b6060600c5f8381526020019081526020015f208054610faa90613191565b80601f0160208091040260200160405190810160405280929190818152602001828054610fd690613191565b80156110215780601f10610ff857610100808354040283529160200191611021565b820191905f5260205f20905b81548152906001019060200180831161100457829003601f168201915b50505050509050919050565b6012602052805f5260405f205f915090505481565b600b5f815480929190611054906132dd565b91905055505f600b5490506110693382611cd5565b81600c5f8381526020019081526020015f20908161108791906134c4565b5033600d5f8381526020019081526020015f205f6101000a81548173ffffffffffffffffffffffffffffffffffffffff021916908373ffffffffffffffffffffffffffffffffffffffff1602179055505050565b60115f8281526020019081526020015f205f9054906101000a900460ff16611138576040517f08c379a000000000000000000000000000000000000000000000000000000000815260040161112f906135dd565b60405180910390fd5b5f60105f8381526020019081526020015f2054905080341461118f576040517f08c379a000000000000000000000000000000000000000000000000000000000815260040161118690613645565b60405180910390fd5b5f61119983610bd1565b90505f3390506111aa828286610b23565b8173ffffffffffffffffffffffffffffffffffffffff166108fc3490811502906040515f60405180830381858888f193505050501580156111ed573d5f5f3e3d5ffd5b505f60115f8681526020019081526020015f205f6101000a81548160ff0219169083151502179055505f60105f8681526020019081526020015f208190555050505050565b600d602052805f5260405f205f915054906101000a900473ffffffffffffffffffffffffffffffffffffffff1681565b60608060605f600e8054905090505f8560018861127f91906132aa565b6112899190613663565b905081811061137f575f67ffffffffffffffff8111156112ac576112ab612c14565b5b6040519080825280602002602001820160405280156112da5781602001602082028036833780820191505090505b505f67ffffffffffffffff8111156112f5576112f4612c14565b5b60405190808252806020026020018201604052801561132857816020015b60608152602001906001900390816113135790505b505f67ffffffffffffffff81111561134357611342612c14565b5b6040519080825280602002602001820160405280156113715781602001602082028036833780820191505090505b5094509450945050506115e2565b5f868261138c9190613277565b90508281111561139a578290505b5f82826113a791906132aa565b90508067ffffffffffffffff8111156113c3576113c2612c14565b5b6040519080825280602002602001820160405280156113f15781602001602082028036833780820191505090505b5096508067ffffffffffffffff81111561140e5761140d612c14565b5b60405190808252806020026020018201604052801561144157816020015b606081526020019060019003908161142c5790505b5095508067ffffffffffffffff81111561145e5761145d612c14565b5b60405190808252806020026020018201604052801561148c5781602001602082028036833780820191505090505b5094505f5f90505b818110156115dc575f600e82866114ab9190613277565b815481106114bc576114bb6131c1565b5b905f5260205f2001549050808983815181106114db576114da6131c1565b5b602002602001018181525050600c5f8281526020019081526020015f20805461150390613191565b80601f016020809104026020016040519081016040528092919081815260200182805461152f90613191565b801561157a5780601f106115515761010080835404028352916020019161157a565b820191905f5260205f20905b81548152906001019060200180831161155d57829003601f168201915b5050505050888381518110611592576115916131c1565b5b602002602001018190525060105f8281526020019081526020015f20548783815181106115c2576115c16131c1565b5b602002602001018181525050508080600101915050611494565b50505050505b9250925092565b600f602052805f5260405f205f915090505481565b5f60055f8473ffffffffffffffffffffffffffffffffffffffff1673ffffffffffffffffffffffffffffffffffffffff1681526020019081526020015f205f8373ffffffffffffffffffffffffffffffffffffffff1673ffffffffffffffffffffffffffffffffffffffff1681526020019081526020015f205f9054906101000a900460ff16905092915050565b611694611876565b5f73ffffffffffffffffffffffffffffffffffffffff168173ffffffffffffffffffffffffffffffffffffffff1603611704575f6040517f1e4fbdf70000000000000000000000000000000000000000000000000000000081526004016116fb9190612a42565b60405180910390fd5b61170d816118fd565b50565b5f7f780e9d63000000000000000000000000000000000000000000000000000000007bffffffffffffffffffffffffffffffffffffffffffffffffffffffff1916827bffffffffffffffffffffffffffffffffffffffffffffffffffffffff19161480611782575061178182611cf2565b5b9050919050565b5f5f61179483611dd3565b90505f73ffffffffffffffffffffffffffffffffffffffff168173ffffffffffffffffffffffffffffffffffffffff160361180657826040517f7e2732890000000000000000000000000000000000000000000000000000000081526004016117fd9190612ad2565b60405180910390fd5b80915050919050565b5f60045f8381526020019081526020015f205f9054906101000a900473ffffffffffffffffffffffffffffffffffffffff169050919050565b5f33905090565b61185c8383836001611e0c565b505050565b5f61186d848484611fcb565b90509392505050565b61187e611848565b73ffffffffffffffffffffffffffffffffffffffff1661189c610cab565b73ffffffffffffffffffffffffffffffffffffffff16146118fb576118bf611848565b6040517f118cdaa70000000000000000000000000000000000000000000000000000000081526004016118f29190612a42565b60405180910390fd5b565b5f600a5f9054906101000a900473ffffffffffffffffffffffffffffffffffffffff16905081600a5f6101000a81548173ffffffffffffffffffffffffffffffffffffffff021916908373ffffffffffffffffffffffffffffffffffffffff1602179055508173ffffffffffffffffffffffffffffffffffffffff168173ffffffffffffffffffffffffffffffffffffffff167f8be0079c531659141344cd1fd0a4f28419497f9722a3daafe3b4186f6b6457e060405160405180910390a35050565b5f73ffffffffffffffffffffffffffffffffffffffff168273ffffffffffffffffffffffffffffffffffffffff1603611a3057816040517f5b08ba18000000000000000000000000000000000000000000000000000000008152600401611a279190612a42565b60405180910390fd5b8060055f8573ffffffffffffffffffffffffffffffffffffffff1673ffffffffffffffffffffffffffffffffffffffff1681526020019081526020015f205f8473ffffffffffffffffffffffffffffffffffffffff1673ffffffffffffffffffffffffffffffffffffffff1681526020019081526020015f205f6101000a81548160ff0219169083151502179055508173ffffffffffffffffffffffffffffffffffffffff168373ffffffffffffffffffffffffffffffffffffffff167f17307eab39ab6107e8899845ad3d59bd9653f200f220920489ca2b5937696c3183604051611b1c91906128fc565b60405180910390a3505050565b5f8373ffffffffffffffffffffffffffffffffffffffff163b1115611cce578273ffffffffffffffffffffffffffffffffffffffff1663150b7a02868685856040518563ffffffff1660e01b8152600401611b8794939291906136f6565b6020604051808303815f875af1925050508015611bc257506040513d601f19601f82011682018060405250810190611bbf9190613754565b60015b611c43573d805f8114611bf0576040519150601f19603f3d011682016040523d82523d5f602084013e611bf5565b606091505b505f815103611c3b57836040517f64a0ae92000000000000000000000000000000000000000000000000000000008152600401611c329190612a42565b60405180910390fd5b805160208201fd5b63150b7a0260e01b7bffffffffffffffffffffffffffffffffffffffffffffffffffffffff1916817bffffffffffffffffffffffffffffffffffffffffffffffffffffffff191614611ccc57836040517f64a0ae92000000000000000000000000000000000000000000000000000000008152600401611cc39190612a42565b60405180910390fd5b505b5050505050565b611cee828260405180602001604052805f8152506120e5565b5050565b5f7f80ac58cd000000000000000000000000000000000000000000000000000000007bffffffffffffffffffffffffffffffffffffffffffffffffffffffff1916827bffffffffffffffffffffffffffffffffffffffffffffffffffffffff19161480611dbc57507f5b5e139f000000000000000000000000000000000000000000000000000000007bffffffffffffffffffffffffffffffffffffffffffffffffffffffff1916827bffffffffffffffffffffffffffffffffffffffffffffffffffffffff1916145b80611dcc5750611dcb82612108565b5b9050919050565b5f60025f8381526020019081526020015f205f9054906101000a900473ffffffffffffffffffffffffffffffffffffffff169050919050565b8080611e4457505f73ffffffffffffffffffffffffffffffffffffffff168273ffffffffffffffffffffffffffffffffffffffff1614155b15611f76575f611e5384611789565b90505f73ffffffffffffffffffffffffffffffffffffffff168373ffffffffffffffffffffffffffffffffffffffff1614158015611ebd57508273ffffffffffffffffffffffffffffffffffffffff168173ffffffffffffffffffffffffffffffffffffffff1614155b8015611ed05750611ece81846115fe565b155b15611f1257826040517fa9fbf51f000000000000000000000000000000000000000000000000000000008152600401611f099190612a42565b60405180910390fd5b8115611f7457838573ffffffffffffffffffffffffffffffffffffffff168273ffffffffffffffffffffffffffffffffffffffff167f8c5be1e5ebec7d5bd14f71427d1e84f3dd0314c0f7b2291e5b200ac8c7c3b92560405160405180910390a45b505b8360045f8581526020019081526020015f205f6101000a81548173ffffffffffffffffffffffffffffffffffffffff021916908373ffffffffffffffffffffffffffffffffffffffff16021790555050505050565b5f5f611fd8858585612171565b90505f73ffffffffffffffffffffffffffffffffffffffff168173ffffffffffffffffffffffffffffffffffffffff160361201b576120168461237c565b61205a565b8473ffffffffffffffffffffffffffffffffffffffff168173ffffffffffffffffffffffffffffffffffffffff16146120595761205881856123c0565b5b5b5f73ffffffffffffffffffffffffffffffffffffffff168573ffffffffffffffffffffffffffffffffffffffff160361209b5761209684612497565b6120da565b8473ffffffffffffffffffffffffffffffffffffffff168173ffffffffffffffffffffffffffffffffffffffff16146120d9576120d88585612557565b5b5b809150509392505050565b6120ef83836125db565b6121036120fa611848565b5f858585611b29565b505050565b5f7f01ffc9a7000000000000000000000000000000000000000000000000000000007bffffffffffffffffffffffffffffffffffffffffffffffffffffffff1916827bffffffffffffffffffffffffffffffffffffffffffffffffffffffff1916149050919050565b5f5f61217c84611dd3565b90505f73ffffffffffffffffffffffffffffffffffffffff168373ffffffffffffffffffffffffffffffffffffffff16146121bd576121bc8184866126ce565b5b5f73ffffffffffffffffffffffffffffffffffffffff168173ffffffffffffffffffffffffffffffffffffffff1614612248576121fc5f855f5f611e0c565b600160035f8373ffffffffffffffffffffffffffffffffffffffff1673ffffffffffffffffffffffffffffffffffffffff1681526020019081526020015f205f82825403925050819055505b5f73ffffffffffffffffffffffffffffffffffffffff168573ffffffffffffffffffffffffffffffffffffffff16146122c757600160035f8773ffffffffffffffffffffffffffffffffffffffff1673ffffffffffffffffffffffffffffffffffffffff1681526020019081526020015f205f82825401925050819055505b8460025f8681526020019081526020015f205f6101000a81548173ffffffffffffffffffffffffffffffffffffffff021916908373ffffffffffffffffffffffffffffffffffffffff160217905550838573ffffffffffffffffffffffffffffffffffffffff168273ffffffffffffffffffffffffffffffffffffffff167fddf252ad1be2c89b69c2b068fc378daa952ba7f163c4a11628f55a4df523b3ef60405160405180910390a4809150509392505050565b60088054905060095f8381526020019081526020015f2081905550600881908060018154018082558091505060019003905f5260205f20015f909190919091505550565b5f6123ca83610be2565b90505f60075f8481526020019081526020015f205490505f60065f8673ffffffffffffffffffffffffffffffffffffffff1673ffffffffffffffffffffffffffffffffffffffff1681526020019081526020015f209050828214612469575f815f8581526020019081526020015f2054905080825f8581526020019081526020015f20819055508260075f8381526020019081526020015f2081905550505b60075f8581526020019081526020015f205f9055805f8481526020019081526020015f205f90555050505050565b5f60016008805490506124aa91906132aa565b90505f60095f8481526020019081526020015f205490505f600883815481106124d6576124d56131c1565b5b905f5260205f200154905080600883815481106124f6576124f56131c1565b5b905f5260205f2001819055508160095f8381526020019081526020015f208190555060095f8581526020019081526020015f205f9055600880548061253e5761253d61377f565b5b600190038181905f5260205f20015f9055905550505050565b5f600161256384610be2565b61256d91906132aa565b90508160065f8573ffffffffffffffffffffffffffffffffffffffff1673ffffffffffffffffffffffffffffffffffffffff1681526020019081526020015f205f8381526020019081526020015f20819055508060075f8481526020019081526020015f2081905550505050565b5f73ffffffffffffffffffffffffffffffffffffffff168273ffffffffffffffffffffffffffffffffffffffff160361264b575f6040517f64a0ae920000000000000000000000000000000000000000000000000000000081526004016126429190612a42565b60405180910390fd5b5f61265783835f611861565b90505f73ffffffffffffffffffffffffffffffffffffffff168173ffffffffffffffffffffffffffffffffffffffff16146126c9575f6040517f73c6ac6e0000000000000000000000000000000000000000000000000000000081526004016126c09190612a42565b60405180910390fd5b505050565b6126d9838383612791565b61278c575f73ffffffffffffffffffffffffffffffffffffffff168373ffffffffffffffffffffffffffffffffffffffff160361274d57806040517f7e2732890000000000000000000000000000000000000000000000000000000081526004016127449190612ad2565b60405180910390fd5b81816040517f177e802f000000000000000000000000000000000000000000000000000000008152600401612783929190613223565b60405180910390fd5b505050565b5f5f73ffffffffffffffffffffffffffffffffffffffff168373ffffffffffffffffffffffffffffffffffffffff161415801561284857508273ffffffffffffffffffffffffffffffffffffffff168473ffffffffffffffffffffffffffffffffffffffff161480612809575061280884846115fe565b5b8061284757508273ffffffffffffffffffffffffffffffffffffffff1661282f8361180f565b73ffffffffffffffffffffffffffffffffffffffff16145b5b90509392505050565b5f604051905090565b5f5ffd5b5f5ffd5b5f7fffffffff0000000000000000000000000000000000000000000000000000000082169050919050565b61289681612862565b81146128a0575f5ffd5b50565b5f813590506128b18161288d565b92915050565b5f602082840312156128cc576128cb61285a565b5b5f6128d9848285016128a3565b91505092915050565b5f8115159050919050565b6128f6816128e2565b82525050565b5f60208201905061290f5f8301846128ed565b92915050565b5f81519050919050565b5f82825260208201905092915050565b8281835e5f83830152505050565b5f601f19601f8301169050919050565b5f61295782612915565b612961818561291f565b935061297181856020860161292f565b61297a8161293d565b840191505092915050565b5f6020820190508181035f83015261299d818461294d565b905092915050565b5f819050919050565b6129b7816129a5565b81146129c1575f5ffd5b50565b5f813590506129d2816129ae565b92915050565b5f602082840312156129ed576129ec61285a565b5b5f6129fa848285016129c4565b91505092915050565b5f73ffffffffffffffffffffffffffffffffffffffff82169050919050565b5f612a2c82612a03565b9050919050565b612a3c81612a22565b82525050565b5f602082019050612a555f830184612a33565b92915050565b612a6481612a22565b8114612a6e575f5ffd5b50565b5f81359050612a7f81612a5b565b92915050565b5f5f60408385031215612a9b57612a9a61285a565b5b5f612aa885828601612a71565b9250506020612ab9858286016129c4565b9150509250929050565b612acc816129a5565b82525050565b5f602082019050612ae55f830184612ac3565b92915050565b5f5f5f60608486031215612b0257612b0161285a565b5b5f612b0f86828701612a71565b9350506020612b2086828701612a71565b9250506040612b31868287016129c4565b9150509250925092565b5f5f60408385031215612b5157612b5061285a565b5b5f612b5e858286016129c4565b9250506020612b6f858286016129c4565b9150509250929050565b5f60208284031215612b8e57612b8d61285a565b5b5f612b9b84828501612a71565b91505092915050565b612bad816128e2565b8114612bb7575f5ffd5b50565b5f81359050612bc881612ba4565b92915050565b5f5f60408385031215612be457612be361285a565b5b5f612bf185828601612a71565b9250506020612c0285828601612bba565b9150509250929050565b5f5ffd5b5f5ffd5b7f4e487b71000000000000000000000000000000000000000000000000000000005f52604160045260245ffd5b612c4a8261293d565b810181811067ffffffffffffffff82111715612c6957612c68612c14565b5b80604052505050565b5f612c7b612851565b9050612c878282612c41565b919050565b5f67ffffffffffffffff821115612ca657612ca5612c14565b5b612caf8261293d565b9050602081019050919050565b828183375f83830152505050565b5f612cdc612cd784612c8c565b612c72565b905082815260208101848484011115612cf857612cf7612c10565b5b612d03848285612cbc565b509392505050565b5f82601f830112612d1f57612d1e612c0c565b5b8135612d2f848260208601612cca565b91505092915050565b5f5f5f5f60808587031215612d5057612d4f61285a565b5b5f612d5d87828801612a71565b9450506020612d6e87828801612a71565b9350506040612d7f878288016129c4565b925050606085013567ffffffffffffffff811115612da057612d9f61285e565b5b612dac87828801612d0b565b91505092959194509250565b5f5f5f60608486031215612dcf57612dce61285a565b5b5f612ddc86828701612a71565b9350506020612ded868287016129c4565b9250506040612dfe868287016129c4565b9150509250925092565b5f81519050919050565b5f82825260208201905092915050565b5f819050602082019050919050565b612e3a816129a5565b82525050565b5f612e4b8383612e31565b60208301905092915050565b5f602082019050919050565b5f612e6d82612e08565b612e778185612e12565b9350612e8283612e22565b805f5b83811015612eb2578151612e998882612e40565b9750612ea483612e57565b925050600181019050612e85565b5085935050505092915050565b5f81519050919050565b5f82825260208201905092915050565b5f819050602082019050919050565b5f82825260208201905092915050565b5f612f0282612915565b612f0c8185612ee8565b9350612f1c81856020860161292f565b612f258161293d565b840191505092915050565b5f612f3b8383612ef8565b905092915050565b5f602082019050919050565b5f612f5982612ebf565b612f638185612ec9565b935083602082028501612f7585612ed9565b805f5b85811015612fb05784840389528151612f918582612f30565b9450612f9c83612f43565b925060208a01995050600181019050612f78565b50829750879550505050505092915050565b5f6040820190508181035f830152612fda8185612e63565b90508181036020830152612fee8184612f4f565b90509392505050565b5f67ffffffffffffffff82111561301157613010612c14565b5b61301a8261293d565b9050602081019050919050565b5f61303961303484612ff7565b612c72565b90508281526020810184848401111561305557613054612c10565b5b613060848285612cbc565b509392505050565b5f82601f83011261307c5761307b612c0c565b5b813561308c848260208601613027565b91505092915050565b5f602082840312156130aa576130a961285a565b5b5f82013567ffffffffffffffff8111156130c7576130c661285e565b5b6130d384828501613068565b91505092915050565b5f6060820190508181035f8301526130f48186612e63565b905081810360208301526131088185612f4f565b9050818103604083015261311c8184612e63565b9050949350505050565b5f5f6040838503121561313c5761313b61285a565b5b5f61314985828601612a71565b925050602061315a85828601612a71565b9150509250929050565b7f4e487b71000000000000000000000000000000000000000000000000000000005f52602260045260245ffd5b5f60028204905060018216806131a857607f821691505b6020821081036131bb576131ba613164565b5b50919050565b7f4e487b71000000000000000000000000000000000000000000000000000000005f52603260045260245ffd5b5f6060820190506132015f830186612a33565b61320e6020830185612ac3565b61321b6040830184612a33565b949350505050565b5f6040820190506132365f830185612a33565b6132436020830184612ac3565b9392505050565b7f4e487b71000000000000000000000000000000000000000000000000000000005f52601160045260245ffd5b5f613281826129a5565b915061328c836129a5565b92508282019050808211156132a4576132a361324a565b5b92915050565b5f6132b4826129a5565b91506132bf836129a5565b92508282039050818111156132d7576132d661324a565b5b92915050565b5f6132e7826129a5565b91507fffffffffffffffffffffffffffffffffffffffffffffffffffffffffffffffff82036133195761331861324a565b5b600182019050919050565b5f819050815f5260205f209050919050565b5f6020601f8301049050919050565b5f82821b905092915050565b5f600883026133807fffffffffffffffffffffffffffffffffffffffffffffffffffffffffffffffff82613345565b61338a8683613345565b95508019841693508086168417925050509392505050565b5f819050919050565b5f6133c56133c06133bb846129a5565b6133a2565b6129a5565b9050919050565b5f819050919050565b6133de836133ab565b6133f26133ea826133cc565b848454613351565b825550505050565b5f5f905090565b6134096133fa565b6134148184846133d5565b505050565b5b818110156134375761342c5f82613401565b60018101905061341a565b5050565b601f82111561347c5761344d81613324565b61345684613336565b81016020851015613465578190505b61347961347185613336565b830182613419565b50505b505050565b5f82821c905092915050565b5f61349c5f1984600802613481565b1980831691505092915050565b5f6134b4838361348d565b9150826002028217905092915050565b6134cd82612915565b67ffffffffffffffff8111156134e6576134e5612c14565b5b6134f08254613191565b6134fb82828561343b565b5f60209050601f83116001811461352c575f841561351a578287015190505b61352485826134a9565b86555061358b565b601f19841661353a86613324565b5f5b828110156135615784890151825560018201915060208501945060208101905061353c565b8683101561357e578489015161357a601f89168261348d565b8355505b6001600288020188555050505b505050505050565b7f546f6b656e206973206e6f74206c697374656420666f722073616c65000000005f82015250565b5f6135c7601c8361291f565b91506135d282613593565b602082019050919050565b5f6020820190508181035f8301526135f4816135bb565b9050919050565b7f496e636f7272656374207061796d656e7420616d6f756e7400000000000000005f82015250565b5f61362f60188361291f565b915061363a826135fb565b602082019050919050565b5f6020820190508181035f83015261365c81613623565b9050919050565b5f61366d826129a5565b9150613678836129a5565b9250828202613686816129a5565b9150828204841483151761369d5761369c61324a565b5b5092915050565b5f81519050919050565b5f82825260208201905092915050565b5f6136c8826136a4565b6136d281856136ae565b93506136e281856020860161292f565b6136eb8161293d565b840191505092915050565b5f6080820190506137095f830187612a33565b6137166020830186612a33565b6137236040830185612ac3565b818103606083015261373581846136be565b905095945050505050565b5f8151905061374e8161288d565b92915050565b5f602082840312156137695761376861285a565b5b5f61377684828501613740565b91505092915050565b7f4e487b71000000000000000000000000000000000000000000000000000000005f52603160045260245ffdfea2646970667358221220a9b3d812650346979c2113b0991411fd369f2b863343de9e5537e54d37ba3cb464736f6c634300081c0033",
  "linkReferences": {},
  "deployedLinkReferences": {},
  "immutableReferences": {},
  "inputSourceName": "project/contracts/MyToken.sol",
  "buildInfoId": "solc-0_8_28-b41bd245e20b9e0741a7528269fe7645b21380af"
}