{
  "_format": "hh3-artifact-1",
  "contractName": "NFTMarket",
  "sourceName": "contracts/NFTMarket.sol",
  "abi": [
    {
      "inputs": [
        {
          "internalType": "address",
          "name": "nftContract",
          "type": "address"
        }
      ],
      "stateMutability": "nonpayable",
      "type": "constructor"
    },
    {
      "inputs": [
        {
          "internalType": "address",
          "name": "owner",
          "type": "address"
        }
      ],
      "name": "OwnableInvalidOwner",
      "type": "error"
    },
    {
      "inputs": [
        {
          "internalType": "address",
          "name": "account",
          "type": "address"
        }
      ],
      "name": "OwnableUnauthorizedAccount",
      "type": "error"
    },
    {
      "anonymous": false,
      "inputs": [
        {
          "indexed": true,
          "internalType": "address",
          "name": "buyer",
          "type": "address"
        },
        {
          "indexed": true,
          "internalType": "uint256",
          "name": "tokenId",
          "type": "uint256"
        },
        {
          "indexed": false,
          "internalType": "uint256",
          "name": "price",
          "type": "uint256"
        },
        {
          "indexed": false,
          "internalType": "uint256",
          "name": "buyAt",
          "type": "uint256"
        }
      ],
      "name": "Buy",
      "type": "event"
    },
    {
      "anonymous": false,
      "inputs": [
        {
          "indexed": true,
          "internalType": "address",
          "name": "seller",
          "type": "address"
        },
        {
          "indexed": true,
          "internalType": "address",
          "name": "nftContract",
          "type": "address"
        },
        {
          "indexed": true,
          "internalType": "uint256",
          "name": "tokenId",
          "type": "uint256"
        },
        {
          "indexed": false,
          "internalType": "uint256",
          "name": "price",
          "type": "uint256"
        },
        {
          "indexed": false,
          "internalType": "uint256",
          "name": "listedAt",
          "type": "uint256"
        }
      ],
      "name": "ItemListed",
      "type": "event"
    },
    {
      "anonymous": false,
      "inputs": [
        {
          "indexed": true,
          "internalType": "address",
          "name": "seller",
          "type": "address"
        },
        {
          "indexed": true,
          "internalType": "uint256",
          "name": "tokenId",
          "type": "uint256"
        },
        {
          "indexed": false,
          "internalType": "uint256",
          "name": "unlistedAt",
          "type": "uint256"
        }
      ],
      "name": "ItemUnlisted",
      "type": "event"
    },
    {
      "anonymous": false,
      "inputs": [
        {
          "indexed": true,
          "internalType": "address",
          "name": "previousOwner",
          "type": "address"
        },
        {
          "indexed": true,
          "internalType": "address",
          "name": "newOwner",
          "type": "address"
        }
      ],
      "name": "OwnershipTransferred",
      "type": "event"
    },
    {
      "anonymous": false,
      "inputs": [
        {
          "indexed": true,
          "internalType": "address",
          "name": "owner",
          "type": "address"
        },
        {
          "indexed": true,
          "internalType": "uint256",
          "name": "tokenId",
          "type": "uint256"
        },
        {
          "indexed": false,
          "internalType": "uint256",
          "name": "price",
          "type": "uint256"
        },
        {
          "indexed": false,
          "internalType": "uint256",
          "name": "setAt",
          "type": "uint256"
        }
      ],
      "name": "SetPrice",
      "type": "event"
    },
    {
      "anonymous": false,
      "inputs": [
        {
          "indexed": true,
          "internalType": "address",
          "name": "seller",
          "type": "address"
        },
        {
          "indexed": true,
          "internalType": "address",
          "name": "to",
          "type": "address"
        },
        {
          "indexed": true,
          "internalType": "uint256",
          "name": "tokenId",
          "type": "uint256"
        },
        {
          "indexed": false,
          "internalType": "uint256",
          "name": "transferAt",
          "type": "uint256"
        }
      ],
      "name": "Transfer",
      "type": "event"
    },
    {
      "inputs": [
        {
          "internalType": "uint256",
          "name": "tokenId",
          "type": "uint256"
        }
      ],
      "name": "buy",
      "outputs": [],
      "stateMutability": "payable",
      "type": "function"
    },
    {
      "inputs": [
        {
          "internalType": "uint256",
          "name": "",
          "type": "uint256"
        }
      ],
      "name": "isListed",
      "outputs": [
        {
          "internalType": "bool",
          "name": "",
          "type": "bool"
        }
      ],
      "stateMutability": "view",
      "type": "function"
    },
    {
      "inputs": [
        {
          "internalType": "uint256",
          "name": "tokenId",
          "type": "uint256"
        },
        {
          "internalType": "uint256",
          "name": "price",
          "type": "uint256"
        }
      ],
      "name": "list",
      "outputs": [],
      "stateMutability": "nonpayable",
      "type": "function"
    },
    {
      "inputs": [
        {
          "internalType": "uint256",
          "name": "",
          "type": "uint256"
        }
      ],
      "name": "listPrice",
      "outputs": [
        {
          "internalType": "uint256",
          "name": "",
          "type": "uint256"
        }
      ],
      "stateMutability": "view",
      "type": "function"
    },
    {
      "inputs": [
        {
          "internalType": "uint256",
          "name": "pageNum",
          "type": "uint256"
        },
        {
          "internalType": "uint256",
          "name": "pageSize",
          "type": "uint256"
        }
      ],
      "name": "listTokens",
      "outputs": [
        {
          "internalType": "uint256[]",
          "name": "tokenIds",
          "type": "uint256[]"
        },
        {
          "internalType": "string[]",
          "name": "tokenUris",
          "type": "string[]"
        },
        {
          "internalType": "uint256[]",
          "name": "prices",
          "type": "uint256[]"
        }
      ],
      "stateMutability": "view",
      "type": "function"
    },
    {
      "inputs": [],
      "name": "nft",
      "outputs": [
        {
          "internalType": "contract INFT",
          "name": "",
          "type": "address"
        }
      ],
      "stateMutability": "view",
      "type": "function"
    },
    {
      "inputs": [],
      "name": "owner",
      "outputs": [
        {
          "internalType": "address",
          "name": "",
          "type": "address"
        }
      ],
      "stateMutability": "view",
      "type": "function"
    },
    {
      "inputs": [],
      "name": "renounceOwnership",
      "outputs": [],
      "stateMutability": "nonpayable",
      "type": "function"
    },
    {
      "inputs": [
        {
          "internalType": "uint256",
          "name": "tokenId",
          "type": "uint256"
        },
        {
          "internalType": "uint256",
          "name": "price",
          "type": "uint256"
        }
      ],
      "name": "setPrice",
      "outputs": [],
      "stateMutability": "nonpayable",
      "type": "function"
    },
    {
      "inputs": [],
      "name": "totalListed",
      "outputs": [
        {
          "internalType": "uint256",
          "name": "",
          "type": "uint256"
        }
      ],
      "stateMutability": "view",
      "type": "function"
    },
    {
      "inputs": [
        {
          "internalType": "address",
          "name": "newOwner",
          "type": "address"
        }
      ],
      "name": "transferOwnership",
      "outputs": [],
      "stateMutability": "nonpayable",
      "type": "function"
    },
    {
      "inputs": [
        {
          "internalType": "uint256",
          "name": "tokenId",
          "type": "uint256"
        }
      ],
      "name": "unlist",
      "outputs": [],
      "stateMutability": "nonpayable",
      "type": "function"
    }
  ],
  "bytecode": "0x60a060405234801561000f575f5ffd5b506040516128113803806128118339818101604052810190610031919061020b565b335f73ffffffffffffffffffffffffffffffffffffffff168173ffffffffffffffffffffffffffffffffffffffff16036100a2575f6040517f1e4fbdf70000000000000000000000000000000000000000000000000000000081526004016100999190610245565b60405180910390fd5b6100b1816100ec60201b60201c565b508073ffffffffffffffffffffffffffffffffffffffff1660808173ffffffffffffffffffffffffffffffffffffffff16815250505061025e565b5f5f5f9054906101000a900473ffffffffffffffffffffffffffffffffffffffff169050815f5f6101000a81548173ffffffffffffffffffffffffffffffffffffffff021916908373ffffffffffffffffffffffffffffffffffffffff1602179055508173ffffffffffffffffffffffffffffffffffffffff168173ffffffffffffffffffffffffffffffffffffffff167f8be0079c531659141344cd1fd0a4f28419497f9722a3daafe3b4186f6b6457e060405160405180910390a35050565b5f5ffd5b5f73ffffffffffffffffffffffffffffffffffffffff82169050919050565b5f6101da826101b1565b9050919050565b6101ea816101d0565b81146101f4575f5ffd5b50565b5f81519050610205816101e1565b92915050565b5f602082840312156102205761021f6101ad565b5b5f61022d848285016101f7565b91505092915050565b61023f816101d0565b82525050565b5f6020820190506102585f830184610236565b92915050565b60805161254e6102c35f395f81816102b2015281816102ed0152818161049201528181610547015281816106a2015281816107f001528181610b1f01528181610c27015281816111c4015281816113640152818161150801526115bd015261254e5ff3fe6080604052600436106100a6575f3560e01c8063cf92f6f411610063578063cf92f6f4146101a0578063d96a094a146101ca578063e30e5ae9146101e6578063f2fde38b14610224578063f7d975771461024c578063fcce488314610274576100a6565b806347ccca02146100aa57806350fd7367146100d4578063715018a6146100fc57806387d81f7c146101125780638da5cb5b1461014e578063bf5a4dd314610178575b5f5ffd5b3480156100b5575f5ffd5b506100be6102b0565b6040516100cb91906118e6565b60405180910390f35b3480156100df575f5ffd5b506100fa60048036038101906100f59190611943565b6102d4565b005b348015610107575f5ffd5b5061011061072b565b005b34801561011d575f5ffd5b5061013860048036038101906101339190611981565b61073e565b60405161014591906119bb565b60405180910390f35b348015610159575f5ffd5b50610162610753565b60405161016f91906119f4565b60405180910390f35b348015610183575f5ffd5b5061019e60048036038101906101999190611981565b61077a565b005b3480156101ab575f5ffd5b506101b4610a5c565b6040516101c191906119bb565b60405180910390f35b6101e460048036038101906101df9190611981565b610a68565b005b3480156101f1575f5ffd5b5061020c60048036038101906102079190611943565b610eee565b60405161021b93929190611bef565b60405180910390f35b34801561022f575f5ffd5b5061024a60048036038101906102459190611c63565b6112c7565b005b348015610257575f5ffd5b50610272600480360381019061026d9190611943565b61134b565b005b34801561027f575f5ffd5b5061029a60048036038101906102959190611981565b611700565b6040516102a79190611ca8565b60405180910390f35b7f000000000000000000000000000000000000000000000000000000000000000081565b3373ffffffffffffffffffffffffffffffffffffffff167f000000000000000000000000000000000000000000000000000000000000000073ffffffffffffffffffffffffffffffffffffffff16636352211e846040518263ffffffff1660e01b815260040161034491906119bb565b602060405180830381865afa15801561035f573d5f5f3e3d5ffd5b505050506040513d601f19601f820116820180604052508101906103839190611cd5565b73ffffffffffffffffffffffffffffffffffffffff16146103d9576040517f08c379a00000000000000000000000000000000000000000000000000000000081526004016103d090611d5a565b60405180910390fd5b60025f8381526020019081526020015f205f9054906101000a900460ff1615610437576040517f08c379a000000000000000000000000000000000000000000000000000000000815260040161042e90611dc2565b60405180910390fd5b5f8111610479576040517f08c379a000000000000000000000000000000000000000000000000000000000815260040161047090611e2a565b60405180910390fd5b3073ffffffffffffffffffffffffffffffffffffffff167f000000000000000000000000000000000000000000000000000000000000000073ffffffffffffffffffffffffffffffffffffffff1663081812fc846040518263ffffffff1660e01b81526004016104e991906119bb565b602060405180830381865afa158015610504573d5f5f3e3d5ffd5b505050506040513d601f19601f820116820180604052508101906105289190611cd5565b73ffffffffffffffffffffffffffffffffffffffff1614806105e057507f000000000000000000000000000000000000000000000000000000000000000073ffffffffffffffffffffffffffffffffffffffff1663e985e9c533306040518363ffffffff1660e01b81526004016105a0929190611e48565b602060405180830381865afa1580156105bb573d5f5f3e3d5ffd5b505050506040513d601f19601f820116820180604052508101906105df9190611e99565b5b61061f576040517f08c379a000000000000000000000000000000000000000000000000000000000815260040161061690611f5a565b60405180910390fd5b60018054905060045f8481526020019081526020015f2081905550600182908060018154018082558091505060019003905f5260205f20015f9091909190915055600160025f8481526020019081526020015f205f6101000a81548160ff0219169083151502179055508060035f8481526020019081526020015f2081905550817f000000000000000000000000000000000000000000000000000000000000000073ffffffffffffffffffffffffffffffffffffffff163373ffffffffffffffffffffffffffffffffffffffff167f91623fbd639d8d503fe2e77aab334b032313685f1b28c84d838c4b647b1f5d9d844260405161071f929190611f78565b60405180910390a45050565b61073361171d565b61073c5f6117a4565b565b6003602052805f5260405f205f915090505481565b5f5f5f9054906101000a900473ffffffffffffffffffffffffffffffffffffffff16905090565b60025f8281526020019081526020015f205f9054906101000a900460ff166107d7576040517f08c379a00000000000000000000000000000000000000000000000000000000081526004016107ce90611fe9565b60405180910390fd5b3373ffffffffffffffffffffffffffffffffffffffff167f000000000000000000000000000000000000000000000000000000000000000073ffffffffffffffffffffffffffffffffffffffff16636352211e836040518263ffffffff1660e01b815260040161084791906119bb565b602060405180830381865afa158015610862573d5f5f3e3d5ffd5b505050506040513d601f19601f820116820180604052508101906108869190611cd5565b73ffffffffffffffffffffffffffffffffffffffff1614806108da57503373ffffffffffffffffffffffffffffffffffffffff166108c2610753565b73ffffffffffffffffffffffffffffffffffffffff16145b610919576040517f08c379a000000000000000000000000000000000000000000000000000000000815260040161091090612051565b60405180910390fd5b5f60045f8381526020019081526020015f205490505f6001808080549050610941919061209c565b81548110610952576109516120cf565b5b905f5260205f200154905082811461099c578060018381548110610979576109786120cf565b5b905f5260205f2001819055508160045f8381526020019081526020015f20819055505b60018054806109ae576109ad6120fc565b5b600190038181905f5260205f20015f9055905560045f8481526020019081526020015f205f905560025f8481526020019081526020015f205f6101000a81549060ff021916905560035f8481526020019081526020015f205f9055823373ffffffffffffffffffffffffffffffffffffffff167e3e6e0be605eff13872c86b399dfa13c49127a43d122dbdf776225c03deca9342604051610a4f91906119bb565b60405180910390a3505050565b5f600180549050905090565b60025f8281526020019081526020015f205f9054906101000a900460ff16610ac5576040517f08c379a0000000000000000000000000000000000000000000000000000000008152600401610abc90611fe9565b60405180910390fd5b5f60035f8381526020019081526020015f20549050803414610b1c576040517f08c379a0000000000000000000000000000000000000000000000000000000008152600401610b1390612173565b60405180910390fd5b5f7f000000000000000000000000000000000000000000000000000000000000000073ffffffffffffffffffffffffffffffffffffffff16636352211e846040518263ffffffff1660e01b8152600401610b7691906119bb565b602060405180830381865afa158015610b91573d5f5f3e3d5ffd5b505050506040513d601f19601f82011682018060405250810190610bb59190611cd5565b90503373ffffffffffffffffffffffffffffffffffffffff168173ffffffffffffffffffffffffffffffffffffffff1603610c25576040517f08c379a0000000000000000000000000000000000000000000000000000000008152600401610c1c906121db565b60405180910390fd5b7f000000000000000000000000000000000000000000000000000000000000000073ffffffffffffffffffffffffffffffffffffffff166342842e0e8233866040518463ffffffff1660e01b8152600401610c82939291906121f9565b5f604051808303815f87803b158015610c99575f5ffd5b505af1158015610cab573d5f5f3e3d5ffd5b505050505f8173ffffffffffffffffffffffffffffffffffffffff1634604051610cd49061225b565b5f6040518083038185875af1925050503d805f8114610d0e576040519150601f19603f3d011682016040523d82523d5f602084013e610d13565b606091505b5050905080610d57576040517f08c379a0000000000000000000000000000000000000000000000000000000008152600401610d4e906122b9565b60405180910390fd5b5f60045f8681526020019081526020015f205490505f6001808080549050610d7f919061209c565b81548110610d9057610d8f6120cf565b5b905f5260205f2001549050858114610dda578060018381548110610db757610db66120cf565b5b905f5260205f2001819055508160045f8381526020019081526020015f20819055505b6001805480610dec57610deb6120fc565b5b600190038181905f5260205f20015f9055905560045f8781526020019081526020015f205f905560025f8781526020019081526020015f205f6101000a81549060ff021916905560035f8781526020019081526020015f205f9055853373ffffffffffffffffffffffffffffffffffffffff167fbeae048c6d270d9469f86cf6e8fedda3c60ad770f16c24c9fc131c8e9a09101d8742604051610e90929190611f78565b60405180910390a3853373ffffffffffffffffffffffffffffffffffffffff167e3e6e0be605eff13872c86b399dfa13c49127a43d122dbdf776225c03deca9342604051610ede91906119bb565b60405180910390a3505050505050565b606080606060018510158015610f0357505f84115b610f42576040517f08c379a0000000000000000000000000000000000000000000000000000000008152600401610f3990612321565b60405180910390fd5b5f60018054905090505f85600188610f5a919061209c565b610f64919061233f565b905081811061105a575f67ffffffffffffffff811115610f8757610f86612380565b5b604051908082528060200260200182016040528015610fb55781602001602082028036833780820191505090505b505f67ffffffffffffffff811115610fd057610fcf612380565b5b60405190808252806020026020018201604052801561100357816020015b6060815260200190600190039081610fee5790505b505f67ffffffffffffffff81111561101e5761101d612380565b5b60405190808252806020026020018201604052801561104c5781602001602082028036833780820191505090505b5094509450945050506112c0565b5f868261106791906123ad565b905082811115611075578290505b5f8282611082919061209c565b90508067ffffffffffffffff81111561109e5761109d612380565b5b6040519080825280602002602001820160405280156110cc5781602001602082028036833780820191505090505b5096508067ffffffffffffffff8111156110e9576110e8612380565b5b60405190808252806020026020018201604052801561111c57816020015b60608152602001906001900390816111075790505b5095508067ffffffffffffffff81111561113957611138612380565b5b6040519080825280602002602001820160405280156111675781602001602082028036833780820191505090505b5094505f5f90505b818110156112ba575f6001828661118691906123ad565b81548110611197576111966120cf565b5b905f5260205f2001549050808983815181106111b6576111b56120cf565b5b6020026020010181815250507f000000000000000000000000000000000000000000000000000000000000000073ffffffffffffffffffffffffffffffffffffffff1663c87b56dd826040518263ffffffff1660e01b815260040161121b91906119bb565b5f60405180830381865afa158015611235573d5f5f3e3d5ffd5b505050506040513d5f823e3d601f19601f8201168201806040525081019061125d91906124d1565b8883815181106112705761126f6120cf565b5b602002602001018190525060035f8281526020019081526020015f20548783815181106112a05761129f6120cf565b5b60200260200101818152505050808060010191505061116f565b50505050505b9250925092565b6112cf61171d565b5f73ffffffffffffffffffffffffffffffffffffffff168173ffffffffffffffffffffffffffffffffffffffff160361133f575f6040517f1e4fbdf700000000000000000000000000000000000000000000000000000000815260040161133691906119f4565b60405180910390fd5b611348816117a4565b50565b3373ffffffffffffffffffffffffffffffffffffffff167f000000000000000000000000000000000000000000000000000000000000000073ffffffffffffffffffffffffffffffffffffffff16636352211e846040518263ffffffff1660e01b81526004016113bb91906119bb565b602060405180830381865afa1580156113d6573d5f5f3e3d5ffd5b505050506040513d601f19601f820116820180604052508101906113fa9190611cd5565b73ffffffffffffffffffffffffffffffffffffffff1614611450576040517f08c379a000000000000000000000000000000000000000000000000000000000815260040161144790611d5a565b60405180910390fd5b60025f8381526020019081526020015f205f9054906101000a900460ff166114ad576040517f08c379a00000000000000000000000000000000000000000000000000000000081526004016114a490611fe9565b60405180910390fd5b5f81116114ef576040517f08c379a00000000000000000000000000000000000000000000000000000000081526004016114e690611e2a565b60405180910390fd5b3073ffffffffffffffffffffffffffffffffffffffff167f000000000000000000000000000000000000000000000000000000000000000073ffffffffffffffffffffffffffffffffffffffff1663081812fc846040518263ffffffff1660e01b815260040161155f91906119bb565b602060405180830381865afa15801561157a573d5f5f3e3d5ffd5b505050506040513d601f19601f8201168201806040525081019061159e9190611cd5565b73ffffffffffffffffffffffffffffffffffffffff16148061165657507f000000000000000000000000000000000000000000000000000000000000000073ffffffffffffffffffffffffffffffffffffffff1663e985e9c533306040518363ffffffff1660e01b8152600401611616929190611e48565b602060405180830381865afa158015611631573d5f5f3e3d5ffd5b505050506040513d601f19601f820116820180604052508101906116559190611e99565b5b611695576040517f08c379a000000000000000000000000000000000000000000000000000000000815260040161168c90611f5a565b60405180910390fd5b8060035f8481526020019081526020015f2081905550813373ffffffffffffffffffffffffffffffffffffffff167f0577bef21f74291b2dff5d793239ecb6043ddfcd713e8222c2b603d739b0d13a83426040516116f4929190611f78565b60405180910390a35050565b6002602052805f5260405f205f915054906101000a900460ff1681565b611725611865565b73ffffffffffffffffffffffffffffffffffffffff16611743610753565b73ffffffffffffffffffffffffffffffffffffffff16146117a257611766611865565b6040517f118cdaa700000000000000000000000000000000000000000000000000000000815260040161179991906119f4565b60405180910390fd5b565b5f5f5f9054906101000a900473ffffffffffffffffffffffffffffffffffffffff169050815f5f6101000a81548173ffffffffffffffffffffffffffffffffffffffff021916908373ffffffffffffffffffffffffffffffffffffffff1602179055508173ffffffffffffffffffffffffffffffffffffffff168173ffffffffffffffffffffffffffffffffffffffff167f8be0079c531659141344cd1fd0a4f28419497f9722a3daafe3b4186f6b6457e060405160405180910390a35050565b5f33905090565b5f73ffffffffffffffffffffffffffffffffffffffff82169050919050565b5f819050919050565b5f6118ae6118a96118a48461186c565b61188b565b61186c565b9050919050565b5f6118bf82611894565b9050919050565b5f6118d0826118b5565b9050919050565b6118e0816118c6565b82525050565b5f6020820190506118f95f8301846118d7565b92915050565b5f604051905090565b5f5ffd5b5f5ffd5b5f819050919050565b61192281611910565b811461192c575f5ffd5b50565b5f8135905061193d81611919565b92915050565b5f5f6040838503121561195957611958611908565b5b5f6119668582860161192f565b92505060206119778582860161192f565b9150509250929050565b5f6020828403121561199657611995611908565b5b5f6119a38482850161192f565b91505092915050565b6119b581611910565b82525050565b5f6020820190506119ce5f8301846119ac565b92915050565b5f6119de8261186c565b9050919050565b6119ee816119d4565b82525050565b5f602082019050611a075f8301846119e5565b92915050565b5f81519050919050565b5f82825260208201905092915050565b5f819050602082019050919050565b611a3f81611910565b82525050565b5f611a508383611a36565b60208301905092915050565b5f602082019050919050565b5f611a7282611a0d565b611a7c8185611a17565b9350611a8783611a27565b805f5b83811015611ab7578151611a9e8882611a45565b9750611aa983611a5c565b925050600181019050611a8a565b5085935050505092915050565b5f81519050919050565b5f82825260208201905092915050565b5f819050602082019050919050565b5f81519050919050565b5f82825260208201905092915050565b8281835e5f83830152505050565b5f601f19601f8301169050919050565b5f611b2f82611aed565b611b398185611af7565b9350611b49818560208601611b07565b611b5281611b15565b840191505092915050565b5f611b688383611b25565b905092915050565b5f602082019050919050565b5f611b8682611ac4565b611b908185611ace565b935083602082028501611ba285611ade565b805f5b85811015611bdd5784840389528151611bbe8582611b5d565b9450611bc983611b70565b925060208a01995050600181019050611ba5565b50829750879550505050505092915050565b5f6060820190508181035f830152611c078186611a68565b90508181036020830152611c1b8185611b7c565b90508181036040830152611c2f8184611a68565b9050949350505050565b611c42816119d4565b8114611c4c575f5ffd5b50565b5f81359050611c5d81611c39565b92915050565b5f60208284031215611c7857611c77611908565b5b5f611c8584828501611c4f565b91505092915050565b5f8115159050919050565b611ca281611c8e565b82525050565b5f602082019050611cbb5f830184611c99565b92915050565b5f81519050611ccf81611c39565b92915050565b5f60208284031215611cea57611ce9611908565b5b5f611cf784828501611cc1565b91505092915050565b5f82825260208201905092915050565b7f6e6f74206f776e657200000000000000000000000000000000000000000000005f82015250565b5f611d44600983611d00565b9150611d4f82611d10565b602082019050919050565b5f6020820190508181035f830152611d7181611d38565b9050919050565b7f616c7265616479206c69737465640000000000000000000000000000000000005f82015250565b5f611dac600e83611d00565b9150611db782611d78565b602082019050919050565b5f6020820190508181035f830152611dd981611da0565b9050919050565b7f696e76616c6964207072696365000000000000000000000000000000000000005f82015250565b5f611e14600d83611d00565b9150611e1f82611de0565b602082019050919050565b5f6020820190508181035f830152611e4181611e08565b9050919050565b5f604082019050611e5b5f8301856119e5565b611e6860208301846119e5565b9392505050565b611e7881611c8e565b8114611e82575f5ffd5b50565b5f81519050611e9381611e6f565b92915050565b5f60208284031215611eae57611ead611908565b5b5f611ebb84828501611e85565b91505092915050565b7f4e46544d61726b65743a20617070726f7665207468697320636f6e74726163745f8201527f2066697273742028617070726f76652073696e676c65204e4654206f7220736560208201527f74417070726f76616c466f72416c6c2900000000000000000000000000000000604082015250565b5f611f44605083611d00565b9150611f4f82611ec4565b606082019050919050565b5f6020820190508181035f830152611f7181611f38565b9050919050565b5f604082019050611f8b5f8301856119ac565b611f9860208301846119ac565b9392505050565b7f6e6f74206c6973746564000000000000000000000000000000000000000000005f82015250565b5f611fd3600a83611d00565b9150611fde82611f9f565b602082019050919050565b5f6020820190508181035f83015261200081611fc7565b9050919050565b7f6e6f207065726d697373696f6e000000000000000000000000000000000000005f82015250565b5f61203b600d83611d00565b915061204682612007565b602082019050919050565b5f6020820190508181035f8301526120688161202f565b9050919050565b7f4e487b71000000000000000000000000000000000000000000000000000000005f52601160045260245ffd5b5f6120a682611910565b91506120b183611910565b92508282039050818111156120c9576120c861206f565b5b92915050565b7f4e487b71000000000000000000000000000000000000000000000000000000005f52603260045260245ffd5b7f4e487b71000000000000000000000000000000000000000000000000000000005f52603160045260245ffd5b7f62616420707269636500000000000000000000000000000000000000000000005f82015250565b5f61215d600983611d00565b915061216882612129565b602082019050919050565b5f6020820190508181035f83015261218a81612151565b9050919050565b7f73656c66206275790000000000000000000000000000000000000000000000005f82015250565b5f6121c5600883611d00565b91506121d082612191565b602082019050919050565b5f6020820190508181035f8301526121f2816121b9565b9050919050565b5f60608201905061220c5f8301866119e5565b61221960208301856119e5565b61222660408301846119ac565b949350505050565b5f81905092915050565b50565b5f6122465f8361222e565b915061225182612238565b5f82019050919050565b5f6122658261223b565b9150819050919050565b7f706179206661696c0000000000000000000000000000000000000000000000005f82015250565b5f6122a3600883611d00565b91506122ae8261226f565b602082019050919050565b5f6020820190508181035f8301526122d081612297565b9050919050565b7f62616420706167696e67000000000000000000000000000000000000000000005f82015250565b5f61230b600a83611d00565b9150612316826122d7565b602082019050919050565b5f6020820190508181035f830152612338816122ff565b9050919050565b5f61234982611910565b915061235483611910565b925082820261236281611910565b915082820484148315176123795761237861206f565b5b5092915050565b7f4e487b71000000000000000000000000000000000000000000000000000000005f52604160045260245ffd5b5f6123b782611910565b91506123c283611910565b92508282019050808211156123da576123d961206f565b5b92915050565b5f5ffd5b5f5ffd5b6123f182611b15565b810181811067ffffffffffffffff821117156124105761240f612380565b5b80604052505050565b5f6124226118ff565b905061242e82826123e8565b919050565b5f67ffffffffffffffff82111561244d5761244c612380565b5b61245682611b15565b9050602081019050919050565b5f61247561247084612433565b612419565b905082815260208101848484011115612491576124906123e4565b5b61249c848285611b07565b509392505050565b5f82601f8301126124b8576124b76123e0565b5b81516124c8848260208601612463565b91505092915050565b5f602082840312156124e6576124e5611908565b5b5f82015167ffffffffffffffff8111156125035761250261190c565b5b61250f848285016124a4565b9150509291505056fea2646970667358221220a244d3776df7dbd9d2640839ba02c6936ba0f3041ee6a4223d3586927370440c64736f6c634300081c0033",
  "linkReferences": {},
  "deployedLinkReferences": {},
  "immutableReferences": {
    "7788": [
      {
        "length": 32,
        "start": 690
      },
      {
        "length": 32,
        "start": 749
      },
      {
        "length": 32,
        "start": 1170
      },
      {
        "length": 32,
        "start": 1351
      },
      {
        "length": 32,
        "start": 1698
      },
      {
        "length": 32,
        "start": 2032
      },
      {
        "length": 32,
        "start": 2847
      },
      {
        "length": 32,
        "start": 3111
      },
      {
        "length": 32,
        "start": 4548
      },
      {
        "length": 32,
        "start": 4964
      },
      {
        "length": 32,
        "start": 5384
      },
      {
        "length": 32,
        "start": 5565
      }
    ]
  },
  "inputSourceName": "project/contracts/NFTMarket.sol",
  "buildInfoId": "solc-0_8_28-3faeb2af5d455babe8359fb3fd3eee6c99741558"
}